:020000040800F2
:10000000000002204D1E0008291D00082B1D0008BD
:100010002D1D00082F1D0008311D000800000000E4
:10002000000000000000000000000000331D000878
:10003000351D000800000000371D0008391D0008AC
:100040009D1E00089D1E00089D1E00089D1E0008A4
:100050009D1E00089D1E00089D1E00089D1E000894
:100060009D1E00089D1E00089D1E00089D1E000884
:100070009D1E00089D1E00089D1E00089D1E000874
:100080009D1E00089D1E00089D1E00089D1E000864
:100090009D1E00089D1E00089D1E00089D1E000854
:1000A0009D1E00089D1E00089D1E00089D1E000844
:1000B0009D1E00089D1E00089D1E00089D1E000834
:1000C0009D1E00089D1E00089D1E00089D1E000824
:1000D0009D1E00089D1E00089D1E00089D1E000814
:1000E000411D00089D1E00089D1E00089D1E000861
:1000F0009D1E00089D1E00089D1E00089D1E0008F4
:100100009D1E00089D1E00089D1E00089D1E0008E3
:100110009D1E00089D1E00089D1E00089D1E0008D3
:100120009D1E00089D1E00089D1E00089D1E0008C3
:100130009D1E00089D1E00089D1E00089D1E0008B3
:100140009D1E00089D1E00089D1E00089D1E0008A3
:100150009D1E00089D1E00089D1E00089D1E000893
:100160009D1E00089D1E00089D1E00089D1E000883
:100170009D1E00089D1E00089D1E00089D1E000873
:100180009D1E00089D1E00089D1E00089D1E000863
:100190009D1E0008000000009D1E00089D1E000816
:1001A0009D1E00089D1E00089D1E00089D1E000843
:1001B0009D1E00089D1E00089D1E00089D1E000833
:1001C0009D1E00089D1E00089D1E00089D1E000823
:0801D0009D1E00089D1E0008A1
:1001D80053B94AB9002908BF00281CBF4FF0FF31A6
:1001E8004FF0FF3000F00CB8ADF1080C6DE904CE0B
:1001F80001F07EFEDDF804E0DDE9022304B070477B
:10020800704700BF10B5054C237833B9044B13B1C0
:100218000448AFF300800123237010BD0C000020B8
:1002280000000000B421000808B5034B1BB10349C6
:100238000348AFF3008008BD000000001000002054
:10024800B4210008104B1B680BB90120704710B58A
:1002580004464FF47A70B0FBF3F30C4A1068B0FB15
:10026800F3F000F0A1F868B90F2C01D901200AE0D9
:10027800002221464FF0FF3000F082F8044B1C604A
:10028800002000E0012010BD000000200800002030
:100298000400002010B5032000F060F80020FFF7EC
:1002A800D1FF10B10124204610BD044601F01CFD09
:1002B800F9E70000034A1368034909680B4413600F
:1002C800704700BF2800002000000020014B18687C
:1002D800704700BF28000020002807DB00F01F023D
:1002E800400901239340024A42F82030704700BF7A
:1002F80000E100E0002808DB0901C9B200F1604014
:1003080000F5614080F80013704700F00F00090104
:10031800C9B2014B1954704714ED00E000B500F064
:100328000700C0F1070CBCF1040F28BF4FF0040C04
:10033800031D062B0FD9C31E4FF0FF3E0EFA0CF01B
:1003480021EA000199400EFA03FE22EA0E0241EA70
:1003580002005DF804FB0023EEE70000074AD368BB
:1003680023F4E0631B041B0C000200F4E060034369
:1003780043F0BF6343F40033D360704700ED00E0FF
:1003880010B50446054BD868C0F30220FFF7C6FF36
:1003980001462046FFF7AEFF10BD00BF00ED00E0AC
:1003A80008B5FFF799FF08BD0138B0F1807F0BD27F
:1003B8004FF0E0235861054AF02182F8231000200D
:1003C800986107221A6170470120704700ED00E02C
:1003D800F0B583B0002362E085685E000324B44072
:1003E80025EA0405CC68B4402C438460456825EAB6
:1003F8000C054C68C4F300149C402C4344605FE037
:10040800DD08083550F8254003F0070C4FEA8C0C3E
:100418004FF00F0E0EFA0CFE24EA0E0E0C6904FAC9
:100428000CF444EA0E0440F8254060E0052400E09E
:10043800002404FA0EF42C430CF1020C554D45F837
:100448002C40554CA568D44325EA02064F6817F49A
:10045800801F01D042EA05064F4DAE60ED6804EA00
:1004680005064F6817F4001F01D042EA05064A4DF9
:10047800EE606D6804EA05064F6817F4003F01D086
:1004880042EA0506444D6E602D682C404E6816F40D
:10049800803F01D042EA05043F4A146001330A68EC
:1004A80032FA03F474D04FF0010C0CFA03FC1CEA86
:1004B8000202F3D04C6804F00304013C012C8BD9F0
:1004C8004C6804F00304032C0CD0C4685D004FF0A2
:1004D800030C0CFA05FC24EA0C0C8C68AC4044EACA
:1004E8000C04C4604C6804F00304022C88D004682F
:1004F8004FEA430E4FF0030C0CFA0EFC24EA0C0CE6
:100508004C6804F0030404FA0EF444EA0C04046092
:100518004C6814F4403FC1D0204C256E45F00105CD
:100528002566246E04F001040194019C4FEA930CA3
:100538000CF10205174C54F8255003F0030E4FEA4E
:100548008E0E0F2404FA0EF425EA0405B0F1904F3C
:100558003FF46EAF124CA04212D004F58064A04262
:1005680010D004F58064A0420ED004F58064A04247
:100578000CD004F58064A0423FF458AF062458E735
:10058800012456E7022454E7032452E7042450E7E1
:1005980003B0F0BD0000014000040140001002401B
:1005A800000400480AB1816170478162704743695D
:1005B80001EA030221EA030141EA0241816170472D
:1005C8007047000008B5054B5B69034200D108BDC0
:1005D800024B5861FFF7F4FFF9E700BF0004014040
:1005E800002836D13E4B1B6803F4C063B3F5806F17
:1005F80008D03B4AD2F8803023F48073C2F88030A8
:1006080000207047364AD2F8803023F48073C2F84D
:100618008030136823F4C06343F400731360314BD4
:100628001B68322202FB03F32F4AA2FB03239B0C15
:10063800013300E0013B2A4A526912F4806F01D06D
:10064800002BF7D1264B5B6913F4806F44D100204F
:100658007047B0F5007F08D0214A136823F4C063BF
:1006680043F480631360002070471D4B1B6803F43C
:10067800C063B3F5806F08D0194AD2F8803043F4CC
:100688008073C2F8803000207047154AD2F8803055
:1006980043F48073C2F88030136823F4C06343F4D2
:1006A800007313600F4B1B68322202FB03F30E4AE0
:1006B800A2FB03239B0C013300E0013B084A52696B
:1006C80012F4806F01D0002BF7D1054B5B6913F44E
:1006D800806F03D1002070470320704703207047C4
:1006E800007000400800002083DE1B43024A936824
:1006F80043F480439360704700700040124BDA68FF
:1007080002F00302DB68C3F303130133032A11D099
:100718000E48B0FBF3F00C4BDB68C3F3062303FB76
:1007280000F0094BDB68C3F3416301335B00B0FBA6
:10073800F3F070470648B0FBF3F0034BDB68C3F3F4
:10074800062303FB00F0ECE7001002400024F4004D
:1007580000366E01002800F04F8270B582B0044662
:10076800036813F0010F37D0A44A936803F00C0311
:10077800D26802F003020C2B23D0082B23D0636825
:10078800B3F5803F4ED0B3F5A02F51D09B4B1A68DC
:1007980022F480321A601A6822F480221A60636890
:1007A800002B52D0FFF792FD0546944B1B6813F4BB
:1007B800003F11D1FFF78AFD401B6428F5D90320BB
:1007C80023E2032AD9D18D4B1B6813F4003F03D0D1
:1007D8006368002B00F01282236813F0020F5DD0CB
:1007E800864A936803F00C03D26802F003020C2BCC
:1007F8003AD0042B3AD0E368002B75D07F4A1368AF
:1008080043F480731360FFF761FD05467B4B1B685B
:1008180013F4806F5FD1FFF759FD401B0228F5D90B
:100828000320F2E1754A136843F480331360B6E796
:1008380003F18043A3F53C331A6842F480221A601E
:100848001A6842F480321A60A9E7FFF73FFD0546AF
:100858006A4B1B6813F4003FBED0FFF737FD401BFF
:100868006428F5D90320D0E1022AC2D1634B1B6862
:1008780013F4806F03D0E368002B00F0C1815F4A56
:10088800536823F0FE43216943EA016353605C4BDC
:100898001868FFF7D7FC002840F0B481236813F0EC
:1008A800080F4CD063699BB3544AD2F8943043F094
:1008B8000103C2F89430FFF709FD05464F4BD3F802
:1008C800943013F0020F3AD1FFF700FD401B0228C5
:1008D800F4D9032099E1494A536823F0FE4321697A
:1008E80043EA01635360D9E7444A136823F48073E9
:1008F8001360FFF7EBFC0546404B1B6813F4806F51
:10090800CCD0FFF7E3FC401B0228F5D903207CE19B
:100918003A4AD2F8943023F00103C2F89430FFF732
:10092800D5FC0546354BD3F8943013F0020F06D0AA
:10093800FFF7CCFC401B0228F4D9032065E12368AB
:1009480013F0040F00F081802C4B9B6D13F0805F37
:1009580036D12A4B9A6D42F080529A659B6D03F00E
:1009680080530193019B0125264B1B6813F4807F5C
:1009780028D0A368012B39D0052B45D01F4BD3F8BD
:10098800902022F00102C3F89020D3F8902022F0A2
:100998000402C3F89020A368002B43D0FFF796FC0D
:1009A8000646164BD3F8903013F0020F4CD1FFF7E0
:1009B8008DFC801B41F288339842F2D9032024E150
:1009C8000025D1E70F4A136843F480731360FFF7DB
:1009D8007DFC06460B4B1B6813F4807FC9D1FFF7DB
:1009E80075FC801B0228F5D903200EE1034AD2F8D2
:1009F800903043F00103C2F89030CCE70010024079
:100A08000400002000700040884BD3F8902042F08A
:100A18000402C3F89020D3F8902042F00102C3F8F2
:100A28009020B8E7FFF752FC0646804BD3F8903089
:100A380013F0020F08D0FFF749FC801B41F28833FE
:100A48009842F2D90320E0E0E5B9236813F0200FBB
:100A580035D0A369E3B1754AD2F8983043F0010361
:100A6800C2F89830FFF732FC0546704BD3F898303F
:100A780013F0020F23D1FFF729FC401B0228F4D9F9
:100A88000320C2E0694A936D23F080539365DCE745
:100A9800664AD2F8983023F00103C2F89830FFF77D
:100AA80015FC0546614BD3F8983013F0020F06D0B9
:100AB800FFF70CFC401B0228F4D90320A5E0E369EA
:100AC800002B00F0A180594A926802F00C020C2A0F
:100AD80064D0022B13D0554A136823F08073136037
:100AE800FFF7F4FB0446514B1B6813F0007F4ED010
:100AF800FFF7ECFB001B0228F5D9032085E04B4AE1
:100B0800136823F080731360FFF7E0FB0546474B3B
:100B18001B6813F0007F06D0FFF7D8FB401B0228A4
:100B2800F5D9032071E0414AD36841491940236A45
:100B3800606A013843EA0013A06A43EA0023206B85
:100B48004008013843EA4053606B4008013843EAE3
:100B58004063E06A43EAC0631943D160136843F015
:100B680080731360D36843F08073D360FFF7AEFBE4
:100B780004462E4B1B6813F0007F06D1FFF7A6FB37
:100B8800001B0228F5D903203FE000203DE0274A5A
:100B9800D168284B0B40D360002036E0012B36D0BB
:100BA800224BDB6803F00301226A914231D103F042
:100BB800F002616A0139B2EB011F2CD103F4FE4245
:100BC800A16AB2EB012F28D103F07842E16AB2EBB7
:100BD800C16F24D103F4C001226B5208013AB1EB72
:100BE800425F1ED103F0C063626B5208013AB3EB57
:100BF800426F18D1002008E001207047012004E06E
:100C0800012002E0012000E0002002B070BD0120B8
:100C1800FBE70120F9E70120F7E70120F5E70120CC
:100C2800F3E70120F1E70120EFE700BF00100240E1
:100C38000C809F01FCFFEEFE1E4B9B6803F00C032B
:100C4800042B33D01B4B9B6803F00C03082B2FD0CD
:100C5800184B9B6803F00C030C2B01D00020704745
:100C6800144BDA6802F00302DB68C3F303130133A1
:100C7800032A11D01048B0FBF3F00E4BDB68C3F326
:100C8800062303FB00F00B4BDB68C3F3416301331E
:100C98005B00B0FBF3F070470848B0FBF3F0054B7E
:100CA800DB68C3F3062303FB00F0ECE70248704758
:100CB80002487047001002400024F40000366E011C
:100CC800002800F0E680F8B50C460546744B1B6812
:100CD80003F00F038B420BD2714A136823F00F0302
:100CE8000B431360136803F00F038B4240F0D3806B
:100CF8002E6816F001065FD06B68032B2FD0022BED
:100D08004DD0684B1B6813F4806F00F0C680FFF766
:100D180093FF654B98424DD9624A936823F0F003DC
:100D280043F08003936080265E4A936823F00303B0
:100D380069680B439360FFF7C9FA0746594B9B68EC
:100D480003F00C036A68B3EB820F35D0FFF7BEFAE5
:100D5800C01B41F288339842F0D9032078E0514B08
:100D68001B6813F0007F01D1012071E0FFF7C6FC7A
:100D78004D4B98421AD94B4B9B6813F0F00F05D096
:100D88002E6816F00206CFD0AB688BB9454A936837
:100D980023F0F00343F0800393608026C4E7414BBF
:100DA8001B6813F4003FB2D1012051E00026BBE7D5
:100DB8000026B9E70026B7E72B6813F0020F48D0E2
:100DC80013F0040F04D0374A936843F4E063936048
:100DD8002B6813F0080F06D0324A936823F47C532B
:100DE80043F4E06393602F4A936823F0F003A96803
:100DF8000B4393602A4B1B6803F00F03A34230D8C0
:100E08002B6813F0040F06D0264A936823F4E06396
:100E1800E9680B4393602B6813F0080F07D0214A49
:100E2800936823F46053296943EAC1039360FFF789
:100E380003FF1C4B9B68C3F303131C4AD35C03F0EA
:100E48001F03D8401A4B18601A4B1868FFF7FAF9B5
:100E5800F8BD802ECED1134A936823F0F003936037
:100E6800C8E70F4A136823F00F0323431360FFF703
:100E78002DFA06460A4B1B6803F00F03A342BFD0A6
:100E8800FFF724FA801B41F288339842F2D90320F5
:100E9800DEE7012070470120DAE70120D8E700BF2C
:100EA800002002400010024000B4C4040C220008D4
:100EB8000800002004000020014B1868704700BF9C
:100EC8000800002008B5FFF7F7FF054B9B68C3F340
:100ED8000223044AD35C03F01F03D84008BD00BFB7
:100EE800001002400422000808B5FFF7E5FF054B93
:100EF8009B68C3F3C223044AD35C03F01F03D840A2
:100F080008BD00BF0010024004220008F0B583B0FD
:100F18000446036813F4002F6ED0354B9B6D13F015
:100F2800805F1ED1324B9A6D42F080529A659B6D5C
:100F380003F080530193019B01262E4A136843F462
:100F480080731360FFF7C2F905462A4B1B6813F438
:100F5800807F08D1FFF7BAF9401B0228F5D903258D
:100F680002E00026E9E7002545BB214BD3F8903085
:100F780013F4407315D0226D9A4212D01C4AD2F84D
:100F8800903023F44073D2F8901041F48031C2F8C5
:100F98009010D2F8901021F48031C2F89010C2F865
:100FA800903013F0010F10D145B9114AD2F89030A2
:100FB80023F44073216D0B43C2F89030EEB10C4A14
:100FC800936D23F08053936517E0FFF77FF9074689
:100FD800074BD3F8903013F0020FE5D1FFF776F9FD
:100FE800C01B41F288339842F2D90325DCE700BFE1
:100FF80000100240007000400025236813F0010F24
:1010080008D09F4AD2F8883023F0030361680B4365
:10101800C2F88830236813F0020F08D0984AD2F833
:10102800883023F00C03A1680B43C2F8883023688A
:1010380013F0040F08D0924AD2F8883023F0300316
:10104800E1680B43C2F88830236813F0080F08D012
:101058008B4AD2F8883023F0C00321690B43C2F8C9
:101068008830236813F0100F08D0854AD2F88830EA
:1010780023F4407361690B43C2F88830236813F086
:10108800200F08D07E4AD2F8883023F44063A16943
:101098000B43C2F88830236813F0400F08D0784A11
:1010A800D2F8883023F44053E1690B43C2F8883002
:1010B800236813F0800F08D0714AD2F8883023F4DF
:1010C8004043216A0B43C2F88830236813F4807FB9
:1010D80008D06B4AD2F8883023F44033616A0B4356
:1010E800C2F88830236813F4003F08D0644AD2F865
:1010F8009C3023F00303A16A0B43C2F89C30236899
:1011080013F4007F08D05E4AD2F8883023F44023D5
:10111800E16A0B43C2F88830236813F4806F0CD05F
:10112800574AD2F8883023F44013216B0B43C2F896
:101138008830236BB3F5801F79D0236813F4006FD0
:101148000CD04F4AD2F8883023F44003616B0B432C
:10115800C2F88830636BB3F5800F6DD0236813F441
:10116800805F0CD0464AD2F8883023F04073A16BD8
:101178000B43C2F88830A36BB3F1807F61D023683A
:1011880013F4005F0CD03E4AD2F8883023F0406355
:10119800E16B0B43C2F88830E36BB3F1006F55D0B5
:1011A800236813F4804F0CD0354AD2F8883023F0E6
:1011B8004063216C0B43C2F88830236CB3F1006F95
:1011C80049D0236813F4004F0CD02D4AD2F8883048
:1011D80023F04053616C0B43C2F88830636CB3F161
:1011E800805F3DD0236813F4803F0CD0244AD2F8A6
:1011F800883023F04043A16C0B43C2F88830A36CBD
:10120800B3F1804F31D0236813F4802F0CD01C4ADF
:10121800D2F89C3023F44013E16C0B43C2F89C30A5
:10122800E36CB3F5001F25D0284603B0F0BDD368A2
:1012380043F48013D36080E7D36843F48013D3600A
:101248008CE7D36843F48013D36098E7D36843F4FA
:101258008013D360A4E7D36843F48013D360B0E766
:10126800D36843F48033D360BCE7D36843F4803356
:10127800D360C8E7D36843F48013D360D4E700BFD2
:1012880000100240026852E8003F23F4907342E8DD
:1012980000310029F6D1026802F1080353E8003F43
:1012A80023F0805323F00103083242E8003100297B
:1012B800F1D1C36E012B06D02023C0F88C30002357
:1012C800C36643677047026852E8003F23F0100383
:1012D80042E800310029F6D1EEE7000070B5044677
:1012E80083680269134342691343C269134301685F
:1012F8000868964A02401A430A602268536823F431
:101308004053E1680B435360A1692268904B9A42AD
:1013180001D0236A1943936823F06E4323F43063A2
:101328000B4393602268D36A23F00F03616A0B436F
:10133800D3622368874A934226D0874A934237D09C
:10134800864A93424DD0864A93425DD0854A93425D
:101358006CD07F4A93427ED010227D498B4200F0A8
:10136800B380E069B0F5004F00F00481082A00F26C
:101378006F81DFE812F03201540130016D0157012D
:101388006D016D016D015A0102F55842D2F88820AD
:1013980002F00302032A09D8DFE802F00204720609
:1013A8000122DAE70422D8E70822D6E71022D4E798
:1013B80002F5E632D2F8882002F00C020C2A0ED888
:1013C800DFE802F0070D0D0D090D0D0D600D0D0D77
:1013D8000B000022C1E70422BFE70822BDE7102264
:1013E800BBE702F5E432D2F8882002F03002202A66
:1013F8004AD005D8002A49D0102A49D10422ACE79E
:10140800302A47D10822A8E702F5E232D2F888202C
:1014180002F0C002802A3FD004D8FAB3402A3FD154
:1014280004229AE7C02A3DD1082296E702F5E03265
:10143800D2F8882002F44072B2F5007F34D005D883
:10144800A2B3B2F5807F33D1042286E7B2F5407F9C
:1014580030D1082281E702F5C832D2F8882002F498
:101468004062B2F5006F27D005D83AB3B2F5806F65
:1014780026D1042271E7B2F5406F23D108226CE728
:1014880002226AE7022268E7022266E7002264E78E
:10149800102262E7102260E702225EE700225CE782
:1014A80010225AE7102258E7022256E7002254E792
:1014B800102252E7102250E702224EE700224CE7A2
:1014C80010224AE7102248E7082A00F2B180DFE834
:1014D80002F008AF3BAF38AFAFAF05004FF40040A4
:1014E80004E0FFF7EFFC002800F0A480626A1E4BBE
:1014F80033F81220B0FBF2F3656805EB4501994219
:1015080000F29A80B3EB053F00F29880002633463C
:101518003146FEF75DFE090241EA106100026B08E0
:10152800C0182A46334641F10001FEF751FEA0F5E6
:1015380040720E4B9A4200F283802368D86030468E
:1015480064E0FFF779FBCEE70948CFE7F369FFCFFF
:10155800008000400038014000440040004800403E
:10156800004C004000500040CC210008FFFC0F0058
:101578000024F400082A65D8DFE802F0072705648C
:101588002A6464640B00354803E0FFF79BFC0028DD
:101598005AD0626A324B33F81230B0FBF3F062680B
:1015A800530803EB4003B3FBF2F3A3F110014FF62A
:1015B800EF7291424AD89AB222F00F02C3F3420363
:1015C80013432268D360002020E0FFF78DFCDEE79C
:1015D800FFF732FBDBE7214803E0FFF773FC002845
:1015E80038D0626A1E4B33F81230B0FBF3F06368F0
:1015F80000EB5300B0FBF3F0A0F110024FF6EF73CD
:101608009A4229D8236880B2D86000200123A4F820
:101618006A30A4F8683000236367A36770BDFFF7DA
:1016280063FCDCE7FFF708FBD9E74FF40040D8E795
:101638000120EBE70020E9E70120E7E70120E5E7E3
:101648000120E3E70120E1E70020DFE70120DDE7F3
:101658000120DBE70020D9E70120D7E70024F400C8
:10166800CC210008836A13F0080F06D0026853687B
:1016780023F40043816B0B435360836A13F0010F1B
:1016880006D00268536823F40033C16A0B435360E1
:10169800836A13F0020F06D00268536823F480337C
:1016A800016B0B435360836A13F0040F06D0026882
:1016B800536823F48023416B0B435360836A13F010
:1016C800100F06D00268936823F48053C16B0B4354
:1016D8009360836A13F0200F06D00268936823F49E
:1016E8000053016C0B439360836A13F0400F0AD0D8
:1016F8000268536823F48013416C0B435360436CB6
:10170800B3F5801F0BD0836A13F0800F06D00268F0
:10171800536823F40023C16C0B435360704702687D
:10172800536823F4C003816C0B435360EBE72DE946
:10173800F84305460E4617469946DDF820802B6883
:10174800DC6936EA04040CBF01240024BC4236D10B
:10175800B8F1FF3FF3D0FEF7B9FDA0EB0900404513
:1017680030D8B8F1000F2FD02B681A6812F0040F88
:10177800E5D0802EE3D0402EE1D0DA6912F0080FD0
:1017880011D1DA6912F4006FD9D04FF400621A62ED
:101798002846FFF777FD2023C5F89030002385F809
:1017A800843003200CE008241C622846FFF76AFDF9
:1017B800C5F89040002385F88430012000E000201F
:1017C800BDE8F8830320FBE70320F9E72DE9F041A2
:1017D80082B01E46D0F88830202B5AD104460D46D8
:1017E8009046002959D00AB9012053E00023C0F8D7
:1017F80090302123C0F88830FEF768FD0746A4F82A
:101808005480A4F85680A368B3F5805F02D04FF0E7
:10181800000816E0236943B34FF0000811E02023C5
:10182800C4F88830032035E038F8023B2268C3F357
:1018380008039362B4F8562092B2013A92B2A4F81F
:101848005620B4F856309BB293B100963B4600221E
:1018580080212046FFF76BFF0028E0D1002DE3D060
:1018680015F8012B23689A62E4E7A8460025E8E703
:1018780000963B46002240212046FFF758FF18B942
:101888002023C4F8883005E02023C4F888300320DA
:1018980000E0022002B0BDE8F0810120FAE730B58F
:1018A80083B004460023C0F89030FEF70FFD0546CC
:1018B8002268126812F0080F10D123681B6813F011
:1018C800040F28D12023C4F88830C4F88C300020B5
:1018D800E066206784F8840003B030BD6FF07E4373
:1018E8000093034600224FF400112046FFF71FFF24
:1018F8000028E2D0226852E8003F23F0800342E843
:1019080000310029F6D12023C4F88830002384F858
:1019180084300320E0E76FF07E4300932B460022DB
:101928004FF480012046FFF702FF0028CAD0226842
:1019380052E8003F23F4907342E800310029F6D1C1
:10194800226802F1080353E8003F23F0010308323C
:1019580042E800310029F3D12023C4F88C30002359
:1019680084F884300320B7E778B310B50446D0F87C
:1019780088300BB32423C4F888302268136823F016
:1019880001031360A36AE3B92046FFF7A7FC012807
:1019980011D02268536823F49043536022689368F7
:1019A80023F02A0393602268136843F0010313604D
:1019B8002046FFF774FF10BD80F8843000F000FA6D
:1019C800D8E72046FFF74EFEDEE70120704700000B
:1019D800436E2BB90123A0F86A30A0F8683070472D
:1019E80030B403689A68C2F342629968490F094D96
:1019F8006B5CDB00084C615C93FBF1F3A0F86A3088
:101A0800AB5CDB00A25C93FBF2F3A0F8683030BC5F
:101A1800704700BFEC210008E421000890F88430EA
:101A2800012B18D0012380F884302423C0F8883093
:101A380003681A68196821F00101196022F0005240
:101A48000023436601680A602022C0F8882080F8D5
:101A58008430184670470220704738B590F88430B3
:101A6800012B1DD00446012380F884302423C0F8BC
:101A7800883003681D681A6822F001021A6002683B
:101A8800936823F0604319439160FFF7A1FF23682F
:101A98001D602023C4F88830002084F8840038BDF5
:101AA8000220FCE738B590F88430012B1DD004469D
:101AB800012380F884302423C0F8883003681D6827
:101AC8001A6822F001021A600268936823F06063C2
:101AD80019439160FFF77CFF23681D602023C4F839
:101AE8008830002084F8840038BD0220FCE730B537
:101AF80083B004466D464FF47A71284600F02EF8FC
:101B080095E8030084E80300204603B030BD08B51B
:101B180000F034F800B908BD20214FF09040FEF7DE
:101B280046FDF8E700B585B0FFF7F1FF094BEC4635
:101B38000FCBACE807002CF8023B1B0C8CF80030EC
:101B48004FF0FF330E2269460348FFF73FFE05B00A
:101B58005DF804FBF42100083400002000224260F4
:101B6800016070474FF0E0239B69034AA2FB0323FF
:101B78004068C0EB93107047D34D621010B504460F
:101B8800FFF7F0FF236883428CBF0020012010BDBF
:101B980010B58AB000240594069407940894099413
:101BA800254BDA6C42F00402DA64DA6C02F00402C3
:101BB8000192019ADA6C42F02002DA64DA6C02F0DF
:101BC80020020292029ADA6C42F00102DA64DA6CBC
:101BD80002F001020392039ADA6C42F00202DA641C
:101BE800DB6C03F002030493049B224620214FF090
:101BF8009040FEF7D7FC4FF4005305934FF4881339
:101C08000693079405A90D48FEF7E2FB20230593E8
:101C1800012306930794089405A94FF09040FEF716
:101C2800D7FB224621462820FEF7AAFB2820FEF7EC
:101C3800B7FB0AB010BD00BF001002400008004802
:101C480072B6FEE700B595B03822002106A800F06C
:101C580022F9002001900290039004900590FEF76D
:101C6800BFFC022306934FF48072099240220A9225
:101C78000D930E9304220F925522109211931293F2
:101C8800139306A8FEF766FD80B90F23019303237B
:101C98000293002303930493059304210DEB0100A1
:101CA800FFF70EF820B915B05DF804FBFFF7C8FF81
:101CB800FFF7C6FF00B583B0FEF7ECFAFFF7C2FFE7
:101CC800FFF766FF00F048F8064D6C462046FFF720
:101CD8000EFF94E8030085E803000248FFF722FF9F
:101CE800FBE700BF2C00002000B583B00B4B1A6E39
:101CF80042F001021A661A6E02F001020092009A7E
:101D08009A6D42F080529A659B6D03F0805301935F
:101D1800019BFEF7EBFC03B05DF804FB00100240EA
:101D2800FEE7FEE7FEE7FEE7FEE77047704770470D
:101D380008B5FEF7BFFA08BD08B54FF40050FEF726
:101D480041FC08BD034AD2F8883043F47003C2F856
:101D58008830704700ED00E008B51648164B036060
:101D6800164B436000238360C36003610C22426109
:101D78008361036243628362FFF7F6FD70B9002155
:101D88000C48FFF76AFE60B900210A48FFF78AFE8F
:101D980050B90848FFF742FE48B908BDFFF750FFA1
:101DA800EDE7FFF74DFFEFE7FFF74AFFF1E7FFF732
:101DB80047FFF2E7340000200080004040420F0057
:101DC80010B59CB0044600211791189119911A91E9
:101DD8001B91542202A800F05EF82268174B9A4221
:101DE80001D01CB010BD2023029302A8FFF78EF883
:101DF80000BB134BDA6D42F00102DA65DA6D02F0CE
:101E080001020092009ADA6C42F00102DA64DB6C9B
:101E180003F001030193019B0C23179302221892EC
:101E2800002219921A921B9317A94FF09040FEF7BF
:101E3800CFFAD6E7FFF704FFDBE700BF00800040DA
:101E4800001002400D488546FFF77CFF0C480D49FD
:101E58000D4A002302E0D458C4500433C4188C42FD
:101E6800F9D30A4A0A4C002301E013600432A24263
:101E7800FBD300F019F8FFF71DFFFEE70000022072
:101E8800000000200C0000202C2200080C0000207C
:101E9800C8000020FEE702440346934200D1704781
:101EA80003F8011BF9E7000070B50D4D0D4C641BDC
:101EB800A4100026A64209D10B4D0C4C00F076F96F
:101EC800641BA4100026A64205D170BD55F8043B3A
:101ED80098470136EEE755F8043B98470136F2E794
:101EE80024220008242200082422000828220008AE
:101EF8002DE9F047089D0E4604460F46002B4AD1AF
:101F080094468C45B2FA82F260D942B1C2F12003FC
:101F1800974020FA03F30CFA02FC1F4394404FEA5F
:101F28001C4E1FFA8CF6B7FBFEF1230C0EFB117743
:101F380043EA074301FB06F098420AD91CEB030366
:101F480001F1FF3780F01581984240F21281023981
:101F580063441B1AA4B2B3FBFEF00EFB103344EA31
:101F6800034400FB06F6A6420AD91CEB040400F160
:101F7800FF3380F00081A64240F2FD8064440238BD
:101F880040EA0140A41B00211DB1D4400023C5E94B
:101F98000043BDE8F0878B4205D90DB1C5E90001C2
:101FA80000210846F5E7B3FA83F1002946D1B34288
:101FB80002D3824200F2F580841A66EB0302012004
:101FC8001746002DE5D0C5E90047E2E7002A40F0B2
:101FD8009380A1EB0C034FEA1C471FFA8CFE0121EA
:101FE800B3FBF7F607FB1630230C43EA00430EFB5E
:101FF80006F0984208D91CEB030306F1FF3802D219
:10200800984200F2D08046461B1AA4B2B3FBF7F000
:1020180007FB103344EA03440EFB00FEA64508D92B
:102028001CEB040400F1FF3302D2A64500F2B6808F
:102038001846A4EB0E0440EA0640A5E7C1F12007C4
:102048008B4022FA07FC4CEA030C06FA01FE20FA40
:1020580007F426FA07F344EA0E0400FA01F84FEAF7
:102068001C404FEA1449B3FBF0FE1FFA8CF600FB44
:102078001E3349EA03430EFB06F9994502FA01F2B9
:102088000BD91CEB03030EF1FF3A80F085809945CC
:1020980040F28280AEF1020E6344A3EB0909A4B2B8
:1020A800B9FBF0F300FB139944EA094403FB06F675
:1020B800A64208D91CEB040403F1FF3068D2A642FB
:1020C80066D9023B644443EA0E40A41BA0FB02E627
:1020D800B4427346B14652D34FD05DB1B8EB030258
:1020E80064EB090404FA07F722FA01F31F43CC4012
:1020F800C5E9007400214CE7C2F1200120FA01F380
:102108000CFA02FC26FA01F1964033434FEA1C47C9
:102118001FFA8CFEB1FBF7F007FB1016190C41EA09
:10212800064100FB0EF68E4204FA02F408D91CEBB5
:10213800010100F1FF382DD28E422BD902386144BB
:10214800891B9BB2B1FBF7F607FB161143EA014363
:1021580006FB0EF1994208D91CEB030306F1FF3880
:1021680014D2994212D9023E63445B1A46EA0041EE
:1021780036E73946EDE6184602E7F045ADD2BEEB44
:10218800020366EB0C060138B146A6E74646ECE7C3
:10219800034698E74046D3E7D6467EE764440238CC
:1021A80047E708460DE7023E63442DE7F8B500BF50
:1021B800F8BC08BC9E467047F8B500BFF8BC08BC20
:0421C8009E46704778
:1021CC00010002000400060008000A000C001000C8
:1021DC0020004000800000010804020408010101F5
:1021EC00010101030701000048656C6C6F2C205540
:1021FC00415254210D0A00000000000001020304AA
:10220C00000000000000000001020304060708099A
:08221C00DCFCFF7F0100000063
:04222400310200087B
:042228000D0200089B
:0C222C0001000000100000000024F4007D
:0400000508001E4D84
:00000001FF
