:020000040800F2
:10000000000002202D3A0008493600084B3600084F
:100010004D3600084F360008513600080000000039
:10002000000000000000000000000000533600083F
:100030005536000800000000573600085936000801
:100040007D3A00087D3A00087D3A00087D3A0008B4
:100050007D3A00087D3A00087D3A00087D3A0008A4
:100060007D3A00087D3A00087D3A00087D3A000894
:100070007D3A00087D3A00087D3A00087D3A000884
:100080007D3A00087D3A00087D3A00087D3A000874
:100090007D3A00087D3A00087D3A00087D3A000864
:1000A0007D3A00087D3A00087D3A00087D3A000854
:1000B0007D3A00087D3A00087D3A00087D3A000844
:1000C0007D3A00087D3A00087D3A00087D3A000834
:1000D0007D3A00087D3A00087D3A00087D3A000824
:1000E000613600087D3A00087D3A00087D3A000834
:1000F0007D3A00087D3A00087D3A00087D3A000804
:100100007D3A00087D3A00087D3A00087D3A0008F3
:100110007D3A00087D3A00087D3A00087D3A0008E3
:100120007D3A00087D3A00087D3A00087D3A0008D3
:100130007D3A00087D3A00087D3A00087D3A0008C3
:100140007D3A00087D3A00087D3A00087D3A0008B3
:100150007D3A00087D3A00087D3A00087D3A0008A3
:100160007D3A00087D3A00087D3A00087D3A000893
:100170007D3A00087D3A00087D3A00087D3A000883
:100180007D3A00087D3A00087D3A00087D3A000873
:100190007D3A0008000000007D3A00087D3A000822
:1001A0007D3A00087D3A00087D3A00087D3A000853
:1001B0007D3A00087D3A00087D3A00087D3A000843
:1001C0007D3A00087D3A00087D3A00087D3A000833
:0801D0007D3A00087D3A0008A9
:1001E00001F0FF01102A2BDB10F0070F08D010F8E8
:1001F000013B013A8B422DD010F0070F42B3F6D1EC
:10020000F0B441EA012141EA014122F007047FF004
:1002100000070023F0E80256083C85EA010586EA5B
:10022000010685FA47F5A3FA87F586FA47F6A5FA97
:1002300087F68EB9EED1F0BC01F0FF0102F00702A3
:1002400032B110F8013B013A83EA010313B1F8D14E
:100250000020704701387047002D06BF354603382F
:10026000073815F0010F07D1013015F4807F02BF68
:10027000013015F4C03F0130F0BC0138704700BFB9
:1002800053B94AB9002908BF00281CBF4FF0FF31FD
:100290004FF0FF3000F00CB8ADF1080C6DE904CE62
:1002A00004F0A0F8DDF804E0DDE9022304B07047B3
:1002B000704700BF10B5054C237833B9044B13B118
:1002C0000448AFF300800123237010BD5C000020C0
:1002D00000000000A046000808B5034B1BB103490D
:1002E0000348AFF3008008BD00000000600000205C
:1002F000A0460008104B1B680BB90120704710B5D1
:1003000004464FF47A70B0FBF3F30C4A1068B0FB6C
:10031000F3F000F059FD68B90F2C01D901200AE073
:10032000002221464FF0FF3000F03AFD044B1C60E4
:10033000002000E0012010BD000000200800002087
:100340000400002010B5032000F018FD0020FFF786
:10035000D1FF10B10124204610BD044603F058F926
:10036000F9E70000034A1368034909680B44136066
:10037000704700BF7800002000000020014B186883
:10038000704700BF7800002010B430300B0A9B008B
:1003900003F00C03C45801F01F014FF01F0C0CFABE
:1003A00001FC24EA0C0CC2F384628A404CEA02028B
:1003B000C2505DF8044B704710B414304B0E9B00D4
:1003C00003F00403C458C1F304514FF0070C0CFAB6
:1003D00001FC24EA0C0C8A404CEA0202C2505DF88F
:1003E000044B704730B583B000230193002800F020
:1003F0002B810446C36D13B323689A6812F0005F23
:1004000005D09A6822F0204222F03F029A602268CA
:10041000936813F0805F1FD1936823F0104323F09B
:100420003F0343F080539360884B1B689B09884AC5
:10043000A2FB03239B0901335B00019309E002F057
:1004400041FE0023236684F85830D5E7019B013B29
:100450000193019B002BF9D12268936813F0805F10
:100460003DD1E36D43F01003E365236E43F00103D8
:1004700023660120936813F0040300D00123E16D8B
:1004800011F0100F40F0D980002B40F0D680E36DC2
:1004900023F4817343F00203E365936813F0010FC3
:1004A0003ED1B2F1A04F1CD06A4B9A4219D06A4B90
:1004B000996811F0010100D00121684B9B6813F08D
:1004C000010300D001230B436549896811F0010144
:1004D00000D001210B430CBF0123002312E00020B8
:1004E000C8E74FF0A043996811F0010100D0012145
:1004F000584B9B6813F0010300D001230B430CBF42
:100500000123002363B1B2F1A04F69D0514B9A424D
:1005100064D0544963688A6822F47C1213438B6068
:10052000627FE36B43EA4233E2681343A2681343FA
:1005300094F8242043EA0243012A53D0E26A22B10C
:1005400002F47872216B0A4313432168CD68464A4E
:100550002A401A43CA602268136923F04063616B22
:100560000B4313612268936813F0080300D0012342
:100570002BBB237F94F83810490041EA8331D368BC
:1005800023F4804323F002030B43D360236973B346
:100590002268136943F4803313612268D2F8C030B3
:1005A0006FF30D0321690B43C2F8C03094F840305B
:1005B000012B29D02268136923F0010313616369B9
:1005C000012B31D02268136B23F00F031363E36D0B
:1005D00023F0030343F00103E36533E0234999E784
:1005E000224997E7A26A013A43EA4243A6E7226812
:1005F000136923F4803313612268D2F8C0306FF39B
:100600000D03C2F8C030D1E721680B696FF38A038C
:10061000626CA56C2A43E56C2A43256D2A4313437B
:1006200043F001030B61CAE721680B6B23F00F0352
:10063000226A013A13430B63C9E7E36D43F01003E9
:10064000E365012003B030BD0120FBE70800002076
:10065000632D3E05000100500004005000050050CD
:1006600000060050000700500740F0FF0003005054
:10067000F0B583B00023019390F85830012B00F0BF
:10068000428204460D46012380F858300068836892
:1006900013F0040F09D0E36D43F02003E36501205C
:1006A000002384F8583003B0F0BD0A684968FFF7AA
:1006B0006BFE2068836813F0040300D00123866872
:1006C00016F0080600D00126002B3ED1002E3CD1AA
:1006D000AA68B2F1004F78D02968FFF76DFE226852
:1006E000536923F00043536169692268D368C3F3F7
:1006F000C1035B0099402869042873D0603252F826
:100700002070AB4B3B402F6807F0F84C41EA0C01DE
:100710000B4343F0004342F8203023682869AA695C
:10072000603353F8201021F080710A4343F82020F1
:10073000236829692A7F012A51D0603353F8212088
:1007400022F00072324343F821202268936813F0AC
:10075000010F16D12B68E868D2F8B010C3F3120667
:1007600021EA060100F018069248F0400340C3F366
:1007700012030B43C2F8B030EA688F4B9A4200F084
:1007800099802B688D4A134200F0B7812268B2F13C
:10079000A04F00F050818A498A4200F0498189497E
:1007A000896801F0E070884DAB4200F04681874DCA
:1007B000AB4200F04281864DAB4200F07181854D25
:1007C000AB4200F0858100206AE700222968FFF72C
:1007D000F3FD2268536943F00043536184E74FF00F
:1007E0000076AAE7136E116EC1F384612B68C3F320
:1007F000120080BBC3F38463994234D021684B6EEE
:100800004A6EC2F384622B68C3F3120080BBC3F349
:1008100084639A4234D021688B6E8A6EC2F38462FC
:100820002B68C3F3120080BBC3F384639A4234D0B5
:100830002168CB6ECA6EC2F384622B68C3F31200C8
:1008400080BBC3F384639A427FF47FAFCB6E23F007
:100850000043CB6679E793FAA3F313B1B3FA83F3BA
:10086000CAE72023C8E7136E23F000431366C5E7E9
:1008700093FAA3F313B1B3FA83F3CAE72023C8E7CB
:100880004B6E23F000434B66C5E793FAA3F313B115
:10089000B3FA83F3CAE72023C8E78B6E23F0004343
:1008A0008B66C5E793FAA3F313B1B3FA83F3CAE7F0
:1008B0002023C8E720682B68C3F3120626BB9A0ED4
:1008C000013202F01F02092A8CBF00220122002AF5
:1008D00052D046BB990E0131890601F0F84176BB32
:1008E0009F0E013707F01F070122BA401143AEBB2C
:1008F0009B0E013303F01F0303EB43031B05194356
:10090000AA68FFF759FD3CE793FAA3F24AB1B2FA9D
:1009100082F2013202F01F02092A8CBF002201225A
:10092000D5E72022F5E793FAA3F131B1B1FA81F1CD
:100930000131890601F0F841D1E72021F8E793FA67
:10094000A3F24AB1B2FA82F2013202F01F024FF072
:10095000010C0CFA02F2C9E72022F5E793FAA3F39F
:1009600043B1B3FA83F3013303F01F0303EB4303F3
:100970001B05C4E72023F6E776BB990E01318906F3
:1009800001F0F841A6BB9F0E013707F01F070122B7
:10099000BA401143DEBB9B0E013303F01F0303EB90
:1009A00043031E3B1B0543F000731943A8E700BF38
:1009B00000F0FF03FFFF070000007F4000000880F9
:1009C0000001005000070050000021C31000C0903B
:1009D000000052C7000084CB93FAA3F131B1B1FA01
:1009E00081F10131890601F0F841CBE72021F8E7D8
:1009F00093FAA3F24AB1B2FA82F2013202F01F0274
:100A00004FF0010C0CFA02F2C3E72022F5E793FA4B
:100A1000A3F35BB1B3FA83F3013303F01F0303EBDA
:100A200043031E3B1B0543F00073BEE72023F3E79F
:100A300001F50071B4E63549B2E611F4000F7FF418
:100A4000BAAEB2F1A04F04D0314B9A4201D000208F
:100A500026E6B2F1A04F19D02E4B9A4214D02E4A5E
:100A600040F40000936823F0E073184390602B4B30
:100A70001B689B092A4AA2FB03239B09013303EB52
:100A800043039B00019306E0204AE9E71F4AE7E79A
:100A9000019B013B0193019B002BF9D10020FFE555
:100AA00011F0807F7FF48BAEB2F1A04F0ED0194BC6
:100AB0009A4209D0184A40F08070936823F0E0739E
:100AC000184390600020EBE5104AF4E70F4AF2E784
:100AD00011F4800F13D10F4B9A4212D0B2F1A04FF4
:100AE00009D00D4940F480038A6822F0E072134374
:100AF0008B600020D4E50549F4E70020D0E5002014
:100B0000CEE50020CCE50220CDE500BF000300507B
:100B100000060050000100500007005008000020AF
:100B2000632D3E0590F85820012A00F0D68010B4BD
:100B30009DB00346012280F8582000221892199295
:100B40000068B0F1A04F47D0654A904247D00022DC
:100B50000192019A002A46D0926812F0040200D055
:100B60000122846814F0040F40F0A780002A40F0AE
:100B7000A480B0F1A04F42D05A4A90423CD05A4A89
:100B8000086800285CD0906820F460404C6893F8B6
:100B900038C044EA4C34204390601868B0F1A04F4C
:100BA0002FD0504CA0422CD04D48846814F0010442
:100BB00000D001244D48806810F0010000D00120D1
:100BC00020434B4CA46814F0010400D001242043BE
:100BD0000CBF0120002025E0424A0192B9E702F54E
:100BE00080720192B5E7DA6D42F02002DA650022E8
:100BF00083F85820012068E002F50072C0E73D4A02
:100C0000BEE74FF0A040846814F0010400D0012436
:100C10003448806810F0010000D0012020430CBF50
:100C200001200020002854D0906820F4716020F04A
:100C30000F000C688968214308439060002041E060
:100C4000916821F4604191601968B1F1A04F1AD008
:100C50002448814217D02249886810F0010000D052
:100C600001202249896811F0010100D001210143CE
:100C70001F48806810F0010000D0012001430CBF24
:100C80000121002110E04FF0A041886810F0010020
:100C900000D001201349896811F0010100D0012121
:100CA00001430CBF01210021A9B1916821F47161B8
:100CB00021F00F019160002004E0DA6D42F0200283
:100CC000DA650120002283F858201DB05DF8044B3E
:100CD00070470020F6E70020F4E70220704700BFCD
:100CE00000040050000100500007005000050050B3
:100CF0000006005000030050002807DB00F01F0230
:100D0000400901239340024A42F82030704700BF57
:100D100000E100E0002808DB0901C9B200F16040F1
:100D200000F5614080F80013704700F00F000901E2
:100D3000C9B2014B1954704714ED00E000B500F042
:100D40000700C0F1070CBCF1040F28BF4FF0040CE2
:100D5000031D062B0FD9C31E4FF0FF3E0EFA0CF0F9
:100D600021EA000199400EFA03FE22EA0E0241EA4E
:100D700002005DF804FB0023EEE70000074AD36899
:100D800023F4E0631B041B0C000200F4E060034347
:100D900043F0BF6343F40033D360704700ED00E0DD
:100DA00010B50446054BD868C0F30220FFF7C6FF14
:100DB00001462046FFF7AEFF10BD00BF00ED00E08A
:100DC00008B5FFF799FF08BD0138B0F1807F0BD25D
:100DD0004FF0E0235861054AF02182F823100020EB
:100DE000986107221A6170470120704700ED00E00A
:100DF00010B402681D4B9A4228D01D491D4B9A42DF
:100E000026D00164D2F8803023F4F813446B43EA0F
:100E10000443C2F8803001F1700343640268D2F8E1
:100E2000803023F07063846B43EA0463C2F880303F
:100E300001F1B003836401F5C473C36401F5187351
:100E4000036501F51E7343650B4607E00A49D5E7C4
:100E500001F5D461D5E7002243F8042B01F5547263
:100E60009A42F8D85DF8044B704700BF0068004014
:100E700000A40040006C004050A70040002800F093
:100E8000E38038B5044690F85C30D3B122689369AA
:100E900023F010039361FFF771FA054623689A69FE
:100EA00012F0080F12D0FFF769FA401B0A28F5D993
:100EB000236E43F001032366032384F85C30012092
:100EC00038BD80F85D3002F011FADFE79A6942F030
:100ED00001029A61FFF752FA054623689A6912F0F7
:100EE000010F0DD1FFF74AFA401B0A28F5D9236EEE
:100EF00043F001032366032384F85C300120DFE71D
:100F00009A6942F002029A612268504B9A4242D09A
:100F1000237C012B45D02268936943F04003936101
:100F2000637C012B43D02268936923F4804393614F
:100F3000A37C012B41D02268936943F480539361D1
:100F40002268936923F44073A1680B43936122687C
:100F5000936923F0A40393612268136923F01003BB
:100F60001361E368012B2ED0002B31D0022B54D01B
:100F70002268936943F0800393612268136943F008
:100F800010031361E368032B22D12268936943F0B5
:100F9000200393611CE06268A3F58063C3F8002519
:100FA000B6E72268936923F040039361B8E72268AB
:100FB000936943F480439361BAE72268936923F409
:100FC00080539361BCE72268936943F00403936103
:100FD000A3695A1EE369013B1B0243EA4263226A8A
:100FE000013A13436269013A216843EA0243CB6143
:100FF000A368B3F5407F16D02268D2F8C030E16B09
:101000000B43C2F8C0302046FFF7F2FE0020A06577
:101010002066012384F85C3052E72268936943F02C
:1010200020039361D4E7A36A013BE26A013A43EAF1
:101030000223226B013A43EA0213626A013A2168F1
:1010400043EA0243CB60D7E70120704700640040C9
:10105000F0B583B0002362E085685E000324B440ED
:1010600025EA0405CC68B4402C438460456825EA31
:101070000C054C68C4F300149C402C4344605FE0B2
:10108000DD08083550F8254003F0070C4FEA8C0CBA
:101090004FF00F0E0EFA0CFE24EA0E0E0C6904FA45
:1010A0000CF444EA0E0440F8254060E0052400E01A
:1010B000002404FA0EF42C430CF1020C554D45F8B3
:1010C0002C40554CA568D44325EA02064F6817F416
:1010D000801F01D042EA05064F4DAE60ED6804EA7C
:1010E00005064F6817F4001F01D042EA05064A4D75
:1010F000EE606D6804EA05064F6817F4003F01D002
:1011000042EA0506444D6E602D682C404E6816F488
:10111000803F01D042EA05043F4A146001330A6867
:1011200032FA03F474D04FF0010C0CFA03FC1CEA01
:101130000202F3D04C6804F00304013C012C8BD96B
:101140004C6804F00304032C0CD0C4685D004FF01D
:10115000030C0CFA05FC24EA0C0C8C68AC4044EA45
:101160000C04C4604C6804F00304022C88D00468AA
:101170004FEA430E4FF0030C0CFA0EFC24EA0C0C61
:101180004C6804F0030404FA0EF444EA0C0404600E
:101190004C6814F4403FC1D0204C256E45F0010549
:1011A0002566246E04F001040194019C4FEA930C1F
:1011B0000CF10205174C54F8255003F0030E4FEACA
:1011C0008E0E0F2404FA0EF425EA0405B0F1904FB8
:1011D0003FF46EAF124CA04212D004F58064A042DE
:1011E00010D004F58064A0420ED004F58064A042C3
:1011F0000CD004F58064A0423FF458AF062458E7B1
:10120000012456E7022454E7032452E7042450E75C
:1012100003B0F0BD00000140000401400010024096
:10122000000400480AB181617047816270474369D8
:1012300001EA030221EA030141EA024181617047A8
:101240007047000008B5054B5B69034200D108BD3B
:10125000024B5861FFF7F4FFF9E700BF00040140BB
:10126000002836D13E4B1B6803F4C063B3F5806F92
:1012700008D03B4AD2F8803023F48073C2F8803023
:1012800000207047364AD2F8803023F48073C2F8C9
:101290008030136823F4C06343F400731360314B50
:1012A0001B68322202FB03F32F4AA2FB03239B0C91
:1012B000013300E0013B2A4A526912F4806F01D0E9
:1012C000002BF7D1264B5B6913F4806F44D10020CB
:1012D0007047B0F5007F08D0214A136823F4C0633B
:1012E00043F480631360002070471D4B1B6803F4B8
:1012F000C063B3F5806F08D0194AD2F8803043F448
:101300008073C2F8803000207047154AD2F88030D0
:1013100043F48073C2F88030136823F4C06343F44D
:10132000007313600F4B1B68322202FB03F30E4A5B
:10133000A2FB03239B0C013300E0013B084A5269E6
:1013400012F4806F01D0002BF7D1054B5B6913F4C9
:10135000806F03D10020704703207047032070473F
:10136000007000400800002083DE1B43024A93689F
:1013700043F480439360704700700040124BDA687A
:1013800002F00302DB68C3F303130133032A11D015
:101390000E48B0FBF3F00C4BDB68C3F3062303FBF2
:1013A00000F0094BDB68C3F3416301335B00B0FB22
:1013B000F3F070470648B0FBF3F0034BDB68C3F370
:1013C000062303FB00F0ECE7001002400024F400C9
:1013D00000366E01002800F04F8270B582B00446DE
:1013E000036813F0010F37D0A44A936803F00C038D
:1013F000D26802F003020C2B23D0082B23D06368A1
:10140000B3F5803F4ED0B3F5A02F51D09B4B1A6857
:1014100022F480321A601A6822F480221A6063680B
:10142000002B52D0FEF7AAFF0546944B1B6813F41D
:10143000003F11D1FEF7A2FF401B6428F5D903201D
:1014400023E2032AD9D18D4B1B6813F4003F03D04C
:101450006368002B00F01282236813F0020F5DD046
:10146000864A936803F00C03D26802F003020C2B47
:101470003AD0042B3AD0E368002B75D07F4A13682A
:1014800043F480731360FEF779FF05467B4B1B68BE
:1014900013F4806F5FD1FEF771FF401B0228F5D96E
:1014A0000320F2E1754A136843F480331360B6E712
:1014B00003F18043A3F53C331A6842F480221A609A
:1014C0001A6842F480321A60A9E7FEF757FF054612
:1014D0006A4B1B6813F4003FBED0FEF74FFF401B62
:1014E0006428F5D90320D0E1022AC2D1634B1B68DE
:1014F00013F4806F03D0E368002B00F0C1815F4AD2
:10150000536823F0FE43216943EA016353605C4B57
:101510001868FEF7EFFE002840F0B481236813F04E
:10152000080F4CD063699BB3544AD2F8943043F00F
:101530000103C2F89430FEF721FF05464F4BD3F864
:10154000943013F0020F3AD1FEF718FF401B022827
:10155000F4D9032099E1494A536823F0FE432169F5
:1015600043EA01635360D9E7444A136823F4807364
:101570001360FEF703FF0546404B1B6813F4806FB2
:10158000CCD0FEF7FBFE401B0228F5D903207CE1FE
:101590003A4AD2F8943023F00103C2F89430FEF7AF
:1015A000EDFE0546354BD3F8943013F0020F06D00C
:1015B000FEF7E4FE401B0228F4D9032065E123680E
:1015C00013F0040F00F081802C4B9B6D13F0805FB3
:1015D00036D12A4B9A6D42F080529A659B6D03F08A
:1015E00080530193019B0125264B1B6813F4807FD8
:1015F00028D0A368012B39D0052B45D01F4BD3F839
:10160000902022F00102C3F89020D3F8902022F01D
:101610000402C3F89020A368002B43D0FEF7AEFE6F
:101620000646164BD3F8903013F0020F4CD1FEF75C
:10163000A5FE801B41F288339842F2D9032024E1B1
:101640000025D1E70F4A136843F480731360FEF757
:1016500095FE06460B4B1B6813F4807FC9D1FEF73D
:101660008DFE801B0228F5D903200EE1034AD2F833
:10167000903043F00103C2F89030CCE700100240F4
:101680000400002000700040884BD3F8902042F006
:101690000402C3F89020D3F8902042F00102C3F86E
:1016A0009020B8E7FEF76AFE0646804BD3F89030EC
:1016B00013F0020F08D0FEF761FE801B41F2883361
:1016C0009842F2D90320E0E0E5B9236813F0200F37
:1016D00035D0A369E3B1754AD2F8983043F00103DD
:1016E000C2F89830FEF74AFE0546704BD3F89830A2
:1016F00013F0020F23D1FEF741FE401B0228F4D95C
:101700000320C2E0694A936D23F080539365DCE7C0
:10171000664AD2F8983023F00103C2F89830FEF7F9
:101720002DFE0546614BD3F8983013F0020F06D01A
:10173000FEF724FE401B0228F4D90320A5E0E3694C
:10174000002B00F0A180594A926802F00C020C2A8A
:1017500064D0022B13D0554A136823F080731360B2
:10176000FEF70CFE0446514B1B6813F0007F4ED071
:10177000FEF704FE001B0228F5D9032085E04B4A42
:10178000136823F080731360FEF7F8FD0546474B9E
:101790001B6813F0007F06D0FEF7F0FD401B022807
:1017A000F5D9032071E0414AD36841491940236AC1
:1017B000606A013843EA0013A06A43EA0023206B01
:1017C0004008013843EA4053606B4008013843EA5F
:1017D0004063E06A43EAC0631943D160136843F091
:1017E00080731360D36843F08073D360FEF7C6FD47
:1017F00004462E4B1B6813F0007F06D1FEF7BEFD9A
:10180000001B0228F5D903203FE000203DE0274AD5
:10181000D168284B0B40D360002036E0012B36D036
:10182000224BDB6803F00301226A914231D103F0BD
:10183000F002616A0139B2EB011F2CD103F4FE42C0
:10184000A16AB2EB012F28D103F07842E16AB2EB32
:10185000C16F24D103F4C001226B5208013AB1EBED
:10186000425F1ED103F0C063626B5208013AB3EBD2
:10187000426F18D1002008E001207047012004E0E9
:10188000012002E0012000E0002002B070BD012034
:10189000FBE70120F9E70120F7E70120F5E7012048
:1018A000F3E70120F1E70120EFE700BF001002405D
:1018B0000C809F01FCFFEEFE1E4B9B6803F00C03A7
:1018C000042B33D01B4B9B6803F00C03082B2FD049
:1018D000184B9B6803F00C030C2B01D000207047C1
:1018E000144BDA6802F00302DB68C3F3031301331D
:1018F000032A11D01048B0FBF3F00E4BDB68C3F3A2
:10190000062303FB00F00B4BDB68C3F34163013399
:101910005B00B0FBF3F070470848B0FBF3F0054BF9
:10192000DB68C3F3062303FB00F0ECE702487047D3
:1019300002487047001002400024F40000366E0197
:10194000002800F0E680F8B50C460546744B1B688D
:1019500003F00F038B420BD2714A136823F00F037D
:101960000B431360136803F00F038B4240F0D380E6
:101970002E6816F001065FD06B68032B2FD0022B68
:101980004DD0684B1B6813F4806F00F0C680FFF7E2
:1019900093FF654B98424DD9624A936823F0F00358
:1019A00043F08003936080265E4A936823F003032C
:1019B00069680B439360FEF7E1FC0746594B9B684F
:1019C00003F00C036A68B3EB820F35D0FEF7D6FC48
:1019D000C01B41F288339842F0D9032078E0514B84
:1019E0001B6813F0007F01D1012071E0FFF7C6FCF6
:1019F0004D4B98421AD94B4B9B6813F0F00F05D012
:101A00002E6816F00206CFD0AB688BB9454A9368B2
:101A100023F0F00343F0800393608026C4E7414B3A
:101A20001B6813F4003FB2D1012051E00026BBE750
:101A30000026B9E70026B7E72B6813F0020F48D05D
:101A400013F0040F04D0374A936843F4E0639360C3
:101A50002B6813F0080F06D0324A936823F47C53A6
:101A600043F4E06393602F4A936823F0F003A9687E
:101A70000B4393602A4B1B6803F00F03A34230D83B
:101A80002B6813F0040F06D0264A936823F4E06312
:101A9000E9680B4393602B6813F0080F07D0214AC5
:101AA000936823F46053296943EAC1039360FFF705
:101AB00003FF1C4B9B68C3F303131C4AD35C03F066
:101AC0001F03D8401A4B18601A4B1868FEF712FC17
:101AD000F8BD802ECED1134A936823F0F0039360B3
:101AE000C8E70F4A136823F00F0323431360FEF780
:101AF00045FC06460A4B1B6803F00F03A342BFD008
:101B0000FEF73CFC801B41F288339842F2D9032057
:101B1000DEE7012070470120DAE70120D8E700BFA7
:101B2000002002400010024000B4C404F046000847
:101B30000800002004000020014B1868704700BF17
:101B40000800002008B5FFF7F7FF054B9B68C3F3BB
:101B50000223044AD35C03F01F03D84008BD00BF32
:101B600000100240E846000808B5FFF7E5FF054B06
:101B70009B68C3F3C223044AD35C03F01F03D8401D
:101B800008BD00BF00100240E8460008F0B583B071
:101B90000446036813F4002F6ED0354B9B6D13F091
:101BA000805F1ED1324B9A6D42F080529A659B6DD8
:101BB00003F080530193019B01262E4A136843F4DE
:101BC00080731360FEF7DAFB05462A4B1B6813F49B
:101BD000807F08D1FEF7D2FB401B0228F5D90325F0
:101BE00002E00026E9E7002545BB214BD3F8903001
:101BF00013F4407315D0226D9A4212D01C4AD2F8C9
:101C0000903023F44073D2F8901041F48031C2F840
:101C10009010D2F8901021F48031C2F89010C2F8E0
:101C2000903013F0010F10D145B9114AD2F890301D
:101C300023F44073216D0B43C2F89030EEB10C4A8F
:101C4000936D23F08053936517E0FEF797FB0746EB
:101C5000074BD3F8903013F0020FE5D1FEF78EFB5F
:101C6000C01B41F288339842F2D90325DCE700BF5C
:101C700000100240007000400025236813F0010F9F
:101C800008D09F4AD2F8883023F0030361680B43E1
:101C9000C2F88830236813F0020F08D0984AD2F8AF
:101CA000883023F00C03A1680B43C2F88830236806
:101CB00013F0040F08D0924AD2F8883023F0300392
:101CC000E1680B43C2F88830236813F0080F08D08E
:101CD0008B4AD2F8883023F0C00321690B43C2F845
:101CE0008830236813F0100F08D0854AD2F8883066
:101CF00023F4407361690B43C2F88830236813F002
:101D0000200F08D07E4AD2F8883023F44063A169BE
:101D10000B43C2F88830236813F0400F08D0784A8C
:101D2000D2F8883023F44053E1690B43C2F888307D
:101D3000236813F0800F08D0714AD2F8883023F45A
:101D40004043216A0B43C2F88830236813F4807F34
:101D500008D06B4AD2F8883023F44033616A0B43D1
:101D6000C2F88830236813F4003F08D0644AD2F8E0
:101D70009C3023F00303A16A0B43C2F89C30236814
:101D800013F4007F08D05E4AD2F8883023F4402351
:101D9000E16A0B43C2F88830236813F4806F0CD0DB
:101DA000574AD2F8883023F44013216B0B43C2F812
:101DB0008830236BB3F5801F79D0236813F4006F4C
:101DC0000CD04F4AD2F8883023F44003616B0B43A8
:101DD000C2F88830636BB3F5800F6DD0236813F4BD
:101DE000805F0CD0464AD2F8883023F04073A16B54
:101DF0000B43C2F88830A36BB3F1807F61D02368B6
:101E000013F4005F0CD03E4AD2F8883023F04063D0
:101E1000E16B0B43C2F88830E36BB3F1006F55D030
:101E2000236813F4804F0CD0354AD2F8883023F061
:101E30004063216C0B43C2F88830236CB3F1006F10
:101E400049D0236813F4004F0CD02D4AD2F88830C3
:101E500023F04053616C0B43C2F88830636CB3F1DC
:101E6000805F3DD0236813F4803F0CD0244AD2F821
:101E7000883023F04043A16C0B43C2F88830A36C38
:101E8000B3F1804F31D0236813F4802F0CD01C4A5B
:101E9000D2F89C3023F44013E16C0B43C2F89C3021
:101EA000E36CB3F5001F25D0284603B0F0BDD3681E
:101EB00043F48013D36080E7D36843F48013D36086
:101EC0008CE7D36843F48013D36098E7D36843F476
:101ED0008013D360A4E7D36843F48013D360B0E7E2
:101EE000D36843F48033D360BCE7D36843F48033D2
:101EF000D360C8E7D36843F48013D360D4E700BF4E
:101F00000010024030B4026A036A23F00103036246
:101F10004468836923F4803323F073030D681D4301
:101F200022F002028B681343204A904213D002F53C
:101F3000006290420FD002F5406290420BD002F551
:101F40008062904207D002F58062904203D002F591
:101F50000062904205D123F00803CA681A4322F0B8
:101F60000403124A904213D002F5006290420FD04F
:101F700002F5406290420BD002F58062904207D099
:101F800002F58062904203D002F50062904205D1D2
:101F900024F440744A6922438C6914434460856187
:101FA0004A684263036230BC704700BF002C0140A6
:101FB00030B4036A026A22F4807202624468C26921
:101FC00022F4803222F073020D68154323F400736B
:101FD0008A6843EA02231C4A904207D002F5006255
:101FE000904203D002F5E052904206D123F4006300
:101FF000CA6843EA022323F48063134A904213D051
:1020000002F5006290420FD002F5406290420BD080
:1020100002F58062904207D002F58062904203D0C0
:1020200002F50062904207D124F440524C6942EA22
:1020300004128C6942EA04144460C5614A68C263B0
:10204000036230BC704700BF002C014030B4036A0B
:10205000026A22F4805202624468C26922F08072ED
:1020600022F4E6420D6842EA052223F400538D680B
:1020700043EA05331B4DA84207D005F50065A84289
:1020800003D005F5E055A84206D123F40043CD68FE
:1020900043EA053323F48043124DA84213D005F5DB
:1020A0000065A8420FD005F54065A8420BD005F5A4
:1020B0008065A84207D005F58065A84203D005F5E4
:1020C0000065A84207D124F4404C4C694CEA841CBA
:1020D0008C694CEA84144460C2614A6802640362F9
:1020E00030BC7047002C014030B4036A026A22F40D
:1020F000803202624468026D22F4803222F0700263
:102100000D68154323F400338A6843EA0243114AF9
:10211000904213D002F5006290420FD002F5406267
:1021200090420BD002F58062904207D002F58062A7
:10213000904203D002F50062904204D124F480342E
:102140004A6944EA0224446005654A68826403627D
:1021500030BC7047002C014030B4036A026A22F49C
:10216000801202624468026D22F0807222F4E04222
:102170000D6842EA052223F400138D6843EA0553F3
:10218000114DA84213D005F50065A8420FD005F502
:102190004065A8420BD005F58065A84207D005F53B
:1021A0008065A84203D005F50065A84204D124F457
:1021B00080244D6944EA8524446002654A68C2640B
:1021C000036230BC704700BF002C014010B4036AAA
:1021D000046A24F001040462846924F0F00C4CEADF
:1021E000021223F00A030B43826103625DF8044B81
:1021F000704710B4036A046A24F01004046284690E
:1022000024F4704C4CEA023223F0A00343EA011399
:10221000826103625DF8044B7047836823F44013C6
:1022200023F070030B4343F007038360704770474C
:1022300003683A4A904216D0B0F1804F13D0A2F50D
:10224000943290420FD002F5806290420BD002F59A
:102250008062904207D002F59432904203D002F59A
:10226000E052904203D123F070034A6813432B4A93
:10227000904222D0B0F1804F1FD0A2F5943290420C
:102280001BD002F58062904217D002F58062904226
:1022900013D002F5943290420FD002F54062904282
:1022A0000BD002F58062904207D002F58062904226
:1022B00003D002F50062904203D123F44073CA6850
:1022C000134323F080034A69134303608B68C3629E
:1022D0000B688362114B984213D003F50063984258
:1022E0000FD003F5406398420BD003F5806398420A
:1022F00007D003F58063984203D003F5006398424A
:1023000001D10B69036301234361036913F0010FDA
:1023100003D0036923F0010303617047002C0140DF
:1023200060B310B5044690F83D3013B3022384F82F
:102330003D30214651F8040BFFF77AFF012384F862
:10234000483084F83E3084F83F3084F8403084F8D8
:10235000413084F8423084F8433084F8443084F8C3
:10236000453084F8463084F8473084F83D3000200A
:1023700010BD80F83C3001F0A7F9D7E70120704785
:1023800060B310B5044690F83D3013B3022384F8CF
:102390003D30214651F8040BFFF74AFF012384F832
:1023A000483084F83E3084F83F3084F8403084F878
:1023B000413084F8423084F8433084F8443084F863
:1023C000453084F8463084F8473084F83D300020AA
:1023D00010BD80F83C30FFF72AFFD7E70120704797
:1023E00030B4036A026A22F0100202624468826911
:1023F00022F0807222F4E6420D6842EA052223F0C0
:1024000020038D6843EA05131B4DA84207D005F54C
:102410000065A84203D005F5E055A84206D123F097
:102420008003CD6843EA051323F04003124DA84210
:1024300013D005F50065A8420FD005F54065A84208
:102440000BD005F58065A84207D005F58065A84248
:1024500003D005F50065A84207D124F4406C4C690F
:102460004CEA840C8C694CEA8404446082614A68BA
:102470008263036230BC7047002C014090F83C300E
:10248000012B36D010B50446012380F83C30142AC5
:102490002AD8DFE802F00B29292910292929152932
:1024A00029291A2929291F29292924000068FFF729
:1024B00029FD002019E00068FFF792FF002014E0DA
:1024C0000068FFF775FD00200FE00068FFF7BEFD14
:1024D00000200AE00068FFF707FE002005E0006822
:1024E000FFF73AFE002000E00120002384F83C3092
:1024F00010BD0220704710B4846824F47F4C42EA77
:1025000003220A4342EA0C0282605DF8044B7047E2
:1025100090F83C30012B00F09B8010B5044601235D
:1025200080F83C30022380F83D3002689068494BC7
:10253000034093600B68702B61D031D8502B78D05A
:102540001FD8402B0AD1CA6849682068FFF73EFEB1
:1025500040212068FFF761FE002029E074D8202B7D
:1025600003D00AD80BB1102B05D119462068FFF70C
:1025700054FE00201CE001201AE0302BF5D0012091
:1025800016E0602B0AD1CA6849682068FFF731FE5F
:1025900060212068FFF741FE002009E0012007E0EC
:1025A000B3F5005F38D00AD8B3F5805F4ED1002074
:1025B000012384F83D30002384F83C3010BD264AC6
:1025C0009342D2D010D8203A9342CED007D8B3F558
:1025D000801FCAD0B3F1101FC7D00120E8E71F4AFF
:1025E0009342C2D00120E3E71D4A9342BDD010328E
:1025F0009342BAD0203A9342B7D00120D8E7CB68B3
:102600004A6889682068FFF776FF2268936843F07C
:10261000770393600020CBE7CB684A68896820681D
:10262000FFF769FF2268936843F4804393600020BA
:10263000BEE7CA6849682068FFF7C8FD50212068D6
:10264000FFF7EBFD0020B3E70120B1E70120AFE782
:10265000022070478800CEFF4000100030001000BC
:102660006000100090F83C20012A4CD030B40346A2
:10267000012280F83C20022280F83D200068426858
:102680008468224DA84207D005F50065A84203D012
:1026900005F5E055A84203D122F470024D682A43A3
:1026A00022F0007222F070020D682A4342601A681C
:1026B000164882421AD0B2F1804F17D0A0F594305C
:1026C000824213D000F5806082420FD000F5806016
:1026D00082420BD000F59430824207D000F5406072
:1026E000824203D000F58050824204D124F080045D
:1026F000896821439160012283F83D20002083F8FE
:102700003C0030BC70470220704700BF002C0140E5
:1027100090F83C30012B4AD010B40246012380F8D7
:102720003C30CB6823F440738868034323F4806310
:102730004868034323F400630868034323F4805389
:102740000869034323F400534869034323F4804397
:10275000086B034323F47023886943EA004323F0A2
:102760008053C86903431068124CA04207D004F597
:102770000064A04203D004F5E054A04210D123F439
:1027800070038C6A43EA045323F080730C6A23437A
:1027900023F000734C6A234323F00053C96A0B43B0
:1027A0004364002082F83C005DF8044B704702202F
:1027B000704700BF002C0140026852E8003F23F43C
:1027C000907342E800310029F6D1026802F1080353
:1027D00053E8003F23F0805323F00103083242E81E
:1027E00000310029F1D1C36E012B06D02023C0F89F
:1027F0008C300023C36643677047026852E8003F8D
:1028000023F0100342E800310029F6D1EEE7000082
:1028100070B5044683680269134342691343C26971
:10282000134301680868964A02401A430A60226806
:10283000536823F44053E1680B435360A169226855
:10284000904B9A4201D0236A1943936823F06E4358
:1028500023F430630B4393602268D36A23F00F03A1
:10286000616A0B43D3622368874A934226D0874A22
:10287000934237D0864A93424DD0864A93425DD0E8
:10288000854A93426CD07F4A93427ED010227D4984
:102890008B4200F0B380E069B0F5004F00F0048196
:1028A000082A00F26F81DFE812F032015401300192
:1028B0006D0157016D016D016D015A0102F558421C
:1028C000D2F8882002F00302032A09D8DFE802F0D8
:1028D000020472060122DAE70422D8E70822D6E7CA
:1028E0001022D4E702F5E632D2F8882002F00C027A
:1028F0000C2A0ED8DFE802F0070D0D0D090D0D0DA5
:10290000600D0D0D0B000022C1E70422BFE7082275
:10291000BDE71022BBE702F5E432D2F8882002F0CE
:102920003002202A4AD005D8002A49D0102A49D19D
:102930000422ACE7302A47D10822A8E702F5E232A8
:10294000D2F8882002F0C002802A3FD004D8FAB31F
:10295000402A3FD104229AE7C02A3DD1082296E7B7
:1029600002F5E032D2F8882002F44072B2F5007F1E
:1029700034D005D8A2B3B2F5807F33D1042286E7E4
:10298000B2F5407F30D1082281E702F5C832D2F893
:10299000882002F44062B2F5006F27D005D83AB320
:1029A000B2F5806F26D1042271E7B2F5406F23D1D2
:1029B00008226CE702226AE7022268E7022266E741
:1029C000002264E7102262E7102260E702225EE73D
:1029D00000225CE710225AE7102258E7022256E74D
:1029E000002254E7102252E7102250E702224EE75D
:1029F00000224CE710224AE7102248E7082A00F29A
:102A0000B180DFE802F008AF3BAF38AFAFAF0500F1
:102A10004FF4004004E0FFF795F8002800F0A48090
:102A2000626A1E4B33F81220B0FBF2F3656805EBC7
:102A30004501994200F29A80B3EB053F00F298807D
:102A4000002633463146FDF71BFC090241EA1061BE
:102A500000026B08C0182A46334641F10001FDF719
:102A60000FFCA0F540720E4B9A4200F2838023685F
:102A7000D860304664E0FEF71FFFCEE70948CFE795
:102A8000F369FFCF0080004000380140004400405F
:102A900000480040004C004000500040B84600088C
:102AA000FFFC0F000024F400082A65D8DFE802F0DC
:102AB000072705642A6464640B00354803E0FFF7C8
:102AC00041F800285AD0626A324B33F81230B0FB1A
:102AD000F3F06268530803EB4003B3FBF2F3A3F196
:102AE00010014FF6EF7291424AD89AB222F00F02CB
:102AF000C3F3420313432268D360002020E0FFF7B2
:102B000033F8DEE7FEF7D8FEDBE7214803E0FFF706
:102B100019F8002838D0626A1E4B33F81230B0FB27
:102B2000F3F0636800EB5300B0FBF3F0A0F1100288
:102B30004FF6EF739A4229D8236880B2D8600020FC
:102B40000123A4F86A30A4F8683000236367A36700
:102B500070BDFFF709F8DCE7FEF7AEFED9E74FF4EA
:102B60000040D8E70120EBE70020E9E70120E7E794
:102B70000120E5E70120E3E70120E1E70020DFE7AE
:102B80000120DDE70120DBE70020D9E70120D7E7BE
:102B90000024F400B8460008836A13F0080F06D03A
:102BA0000268536823F40043816B0B435360836ACC
:102BB00013F0010F06D00268536823F40033C16A92
:102BC0000B435360836A13F0020F06D00268536808
:102BD00023F48033016B0B435360836A13F0040FBB
:102BE00006D00268536823F48023416B0B43536083
:102BF000836A13F0100F06D00268936823F48053A1
:102C0000C16B0B439360836A13F0200F06D00268F8
:102C1000936823F40053016C0B439360836A13F0B1
:102C2000400F0AD00268536823F48013416C0B43B1
:102C30005360436CB3F5801F0BD0836A13F0800F91
:102C400006D00268536823F40023C16C0B43536021
:102C500070470268536823F4C003816C0B435360D0
:102C6000EBE72DE9F84305460E4617469946DDF891
:102C700020802B68DC6936EA04040CBF01240024A0
:102C8000BC4236D1B8F1FF3FF3D0FDF777FBA0EBA4
:102C90000900404530D8B8F1000F2FD02B681A68D2
:102CA00012F0040FE5D0802EE3D0402EE1D0DA6997
:102CB00012F0080F11D1DA6912F4006FD9D04FF475
:102CC00000621A622846FFF777FD2023C5F890308E
:102CD000002385F8843003200CE008241C62284679
:102CE000FFF76AFDC5F89040002385F88430012085
:102CF00000E00020BDE8F8830320FBE70320F9E7AC
:102D00002DE9F04182B01E46D0F88830202B5AD1F0
:102D100004460D469046002959D00AB9012053E0D7
:102D20000023C0F890302123C0F88830FDF726FB3F
:102D30000746A4F85480A4F85680A368B3F5805FD2
:102D400002D04FF0000816E0236943B34FF00008AB
:102D500011E02023C4F88830032035E038F8023B26
:102D60002268C3F308039362B4F8562092B2013A82
:102D700092B2A4F85620B4F856309BB293B10096A4
:102D80003B46002280212046FFF76BFF0028E0D160
:102D9000002DE3D015F8012B23689A62E4E7A846DA
:102DA0000025E8E700963B46002240212046FFF739
:102DB00058FF18B92023C4F8883005E02023C4F850
:102DC0008830032000E0022002B0BDE8F08101203D
:102DD000FAE730B583B004460023C0F89030FDF721
:102DE000CDFA05462268126812F0080F10D1236848
:102DF0001B6813F0040F28D12023C4F88830C4F8CE
:102E00008C300020E066206784F8840003B030BD79
:102E10006FF07E430093034600224FF400112046DA
:102E2000FFF71FFF0028E2D0226852E8003F23F09E
:102E3000800342E800310029F6D12023C4F888300D
:102E4000002384F884300320E0E76FF07E43009392
:102E50002B4600224FF480012046FFF702FF002896
:102E6000CAD0226852E8003F23F4907342E8003150
:102E70000029F6D1226802F1080353E8003F23F04D
:102E80000103083242E800310029F3D12023C4F8BD
:102E90008C30002384F884300320B7E778B310B572
:102EA0000446D0F888300BB32423C4F88830226855
:102EB000136823F001031360A36AE3B92046FFF708
:102EC000A7FC012811D02268536823F49043536073
:102ED0002268936823F02A0393602268136843F002
:102EE000010313602046FFF774FF10BD80F88430A3
:102EF00000F05AFDD8E72046FFF74EFEDEE701203E
:102F000070470000436E2BB90123A0F86A30A0F887
:102F10006830704730B403689A68C2F342629968B7
:102F2000490F094D6B5CDB00084C615C93FBF1F3CE
:102F3000A0F86A30AB5CDB00A25C93FBF2F3A0F874
:102F4000683030BC704700BFD8460008D046000843
:102F500090F88430012B18D0012380F8843024238A
:102F6000C0F8883003681A68196821F001011960F7
:102F700022F000520023436601680A602022C0F854
:102F8000882080F88430184670470220704738B592
:102F900090F88430012B1DD00446012380F8843042
:102FA0002423C0F8883003681D681A6822F00102E3
:102FB0001A600268936823F0604319439160FFF739
:102FC000A1FF23681D602023C4F88830002084F806
:102FD000840038BD0220FCE738B590F88430012B1E
:102FE0001DD00446012380F884302423C0F88830A3
:102FF00003681D681A6822F001021A60026893686B
:1030000023F0606319439160FFF77CFF23681D6024
:103010002023C4F88830002084F8840038BD0220C2
:10302000FCE7000010B58CB0002409940A940B94BE
:103030002022214601A800F057FD20484FF0A04370
:1030400003604FF4403343608460C46004614461B2
:1030500004238361047744770123036280F82440CA
:10306000C462046380F83840C46380F84040FDF7D0
:10307000B9F9C8B90023099309A91048FDF752FD11
:10308000A8B90F4B019306230293002303937F22D9
:1030900004920422059206930DEB02010748FDF706
:1030A000E7FA38B90CB010BD00F054FAE2E700F0CE
:1030B00051FAE6E700F04EFAF4E700BF7C0000208A
:1030C0000200300430B59FB00446002119911A91D6
:1030D0001B911C911D91542204A800F005FD23684A
:1030E000B3F1A04F01D01FB030BD4FF400430493A3
:1030F0004FF00053159304A8FEF748FD00283FD178
:10310000214BDA6C42F40052DA64DA6C02F40052B9
:103110000092009ADA6C42F00402DA64DA6C02F08F
:1031200004020192019ADA6C42F00102DA64DA6C6C
:1031300002F001020292029ADA6C42F00202DA64B0
:10314000DB6C03F002030393039B032419941A948A
:1031500000251B9519A90D48FDF77AFF19941A94BB
:103160001B9519A94FF09040FDF772FF4FF4804373
:1031700019931A941B9519A90548FDF769FFB2E741
:1031800000F0E8F9BCE700BF00100240000800486A
:103190000004004870B584B004466E464FF47A715E
:1031A000304600F03DF802AD96E8030085E80300E4
:1031B000284600F039F895E8030084E8030020462B
:1031C00004B070BD10B5044600F03BF800B910BD66
:1031D00020214FF09040FEF72AF8204600F024F816
:1031E000F5E7000000B59BB00346074A642101A83B
:1031F00000F046FC4FF0FF3382B201A90348FFF70D
:103200007FFD1BB05DF804FBE0460008580200207B
:1032100008B5FFF7D7FFFDF7B1F8FFF7E3FF08BDEB
:10322000002242600160704710B50446FDF7A6F821
:10323000606010BD10B50446FDF7A0F86368C01AC1
:1032400010BD10B50446FFF7F5FF236883428CBF1D
:103250000020012010BD000008B51048104B03608D
:10326000002343608360C36003744374837410223B
:103270004261012282613F21C161072101624262F4
:103280008262C262026343638363C363FDF7F6FD38
:1032900000B908BD00F05EF9FBE700BF5001002057
:1032A0000064004008B50F480F4B036000234360E3
:1032B0008360C360037443748374102242610122EB
:1032C00082610221C161016242628262C262026362
:1032D00043638363C363FDF7D1FD00B908BD00F00C
:1032E00039F9FBE7EC0000200068004010B59EB003
:1032F0000446002119911A911B911C911D91542291
:1033000004A800F0F1FB23683B4A934204D03B4AF7
:10331000934239D01EB010BD4FF4805304934FF048
:103320000073129304A8FEF731FCF8B9344A13680D
:1033300001331360012B1CD0324BDA6C42F00102D6
:10334000DA64DB6C03F001030193019B4FF4C0537B
:10335000199302231A9300231B931C9309231D9393
:1033600019A94FF09040FDF773FED3E700F0F2F893
:10337000DCE7244B9A6D42F000729A659B6D03F076
:1033800000730093009BD7E74FF4805304934FF0F2
:103390000073129304A8FEF7F9FBF0B9184A1368FA
:1033A00001331360012B1BD0164BDA6C42F0020282
:1033B000DA64DB6C03F002030393039B4FF4405386
:1033C000199302231A9300231B931C9309231D9323
:1033D00019A90D48FDF73CFE9CE700F0BBF8DDE7BE
:1033E000084B9A6D42F000729A659B6D03F0007372
:1033F0000293029BD8E700BF0064004000680040D1
:10340000E800002000100240000400482DE9F041CF
:103410008AB0002405940694079408940994494BB3
:10342000DA6C42F00402DA64DA6C02F00402009210
:10343000009ADA6C42F02002DA64DA6C02F02002C0
:103440000192019ADA6C42F00102DA64DA6C02F05D
:1034500001020292029ADA6C42F00202DA64DA6C39
:1034600002F002020392039ADA6C42F00802DA6474
:10347000DB6C03F008030493049B22464FF40871AD
:103480004FF09040FDF7CEFE2F4F22464FF458717B
:103490003846FDF7C7FE2D4D224606212846FDF78A
:1034A000C1FE4FF4005305934FF48818CDF81880EF
:1034B000079405A93846FDF7CBFD4FF40873059333
:1034C000012606960794089405A94FF09040FDF751
:1034D000BFFD4FF45873059306960794089405A909
:1034E0003846FDF7B5FD0623059306960794089424
:1034F00005A92846FDF7ACFD04230593069407941F
:1035000005A91348FDF7A4FD80230593CDF8188085
:10351000079405A92846FDF79BFD4FF440730593DA
:103520000694079405A92846FDF792FD22462146F8
:103530002820FDF735FC2820FDF742FC0AB0BDE845
:10354000F08100BF0010024000080048000400485D
:10355000000C004872B6FEE700B595B03822002195
:1035600006A800F0C1FA0020019002900390049098
:103570000590FDF775FE022306934FF480720992C1
:1035800040220A920D930E9304220F92552210921C
:1035900011931293139306A8FDF71CFF80B90F2314
:1035A00001930323029300230393049305930421BF
:1035B0000DEB0100FEF7C4F920B915B05DF804FB6E
:1035C000FFF7C8FFFFF7C6FF00B583B0FCF7BAFEF0
:1035D000FFF7C2FFFFF71AFF00F0B2F9FFF722FD75
:1035E000FFF73AFEFFF75EFE00F0D8F800F052F960
:1035F000064D6C462046FFF7CDFD94E8030085E8B4
:1036000003000248FFF704FEFBE700BFB4010020FF
:1036100000B583B00B4B1A6E42F001021A661A6EA7
:1036200002F001020092009A9A6D42F080529A656F
:103630009B6D03F080530193019BFDF797FE03B050
:103640005DF804FB00100240FEE7FEE7FEE7FEE740
:10365000FEE770477047704708B5FCF783FE08BD6A
:1036600008B54FF40050FDF7EDFD08BD10B5034659
:103670000C4A0D490D48006840B10C4800680344ED
:10368000521A934206D8094A136010BD0748084CE5
:103690000460F2E700F030FA0C2303604FF0FF30D3
:1036A000F3E700BF0000022000040000BC0100207E
:1036B00038040020034AD2F8883043F47003C2F87B
:1036C0008830704700ED00E082B003680E4A9342F4
:1036D00004D00E4A93420CD002B070470C4B1A6EC5
:1036E00042F400621A661B6E03F400630093009BB1
:1036F000F2E7074B9A6D42F002029A659B6D03F068
:1037000002030193019BE7E7002C01400004004005
:103710000010024000B589B0002303930493059381
:103720000693079303681A4A934205D0194A9342B5
:1037300019D009B05DF804FB174BDA6C42F00102B6
:10374000DA64DB6C03F001030193019B4FF4807397
:103750000393022304930623079303A94FF0904099
:10376000FDF776FCE5E70C4BDA6C42F00102DA6417
:10377000DB6C03F001030293029B402303930223BB
:103780000493079303A94FF09040FDF761FCD0E745
:10379000002C0140000400400010024010B59CB015
:1037A0000024189419941A941B9415941694179441
:1037B0000E940F9410941194129413941494342230
:1037C000214601A800F090F93048314B0360446075
:1037D00084604FF6FF73C360046144618461FEF747
:1037E0009FFD002840D14FF48053189318A9274813
:1037F000FEF78EFE00283AD12448FEF7C1FD0028CE
:1038000038D1002315931693179315A91F48FEF777
:1038100029FF002831D100220E920F9210921192AE
:103820001292139214920EA91848FEF727FE38BB85
:103830000023019302930393049305934FF40052E2
:1038400006920793089309934FF000720A920B9324
:103850000C930D9301A90D48FEF75AFF98B90B4838
:10386000FFF758FF1CB010BDFFF774FEBBE7FFF772
:1038700071FEC1E7FFF76EFEC3E7FFF76BFECAE715
:10388000FFF768FED4E7FFF765FEE8E70C020020CB
:10389000002C014000B58FB000230A930B930C93CA
:1038A0000D93079308930993009301930293039355
:1038B0000493059306932048204A02604360836086
:1038C0004FF6FF72C26003618361FEF729FD18BBEA
:1038D0004FF480530A930AA91748FEF719FEF0B96E
:1038E0001548FEF74DFDE8B900230793099307A992
:1038F0001148FEF7B7FEC0B9002200920192029271
:10390000049269460C48FEF7B9FD88B90A48FFF7EA
:1039100001FF0FB05DF804FBFFF71CFED8E7FFF7CF
:1039200019FEDDE7FFF716FEDEE7FFF713FEE3E71C
:10393000FFF710FEEAE700BFC001002000040040CE
:1039400008B51648164B0360164B4360002383608E
:10395000C36003610C22426183610362436283623C
:10396000FFF79CFA70B900210C48FFF710FB60B913
:1039700000210A48FFF730FB50B90848FFF7E8FA82
:1039800048B908BDFFF7E6FDEDE7FFF7E3FDEFE718
:10399000FFF7E0FDF1E7FFF7DDFDF2E75802002059
:1039A0000080004020A1070010B59CB00446002113
:1039B0001791189119911A911B91542202A800F0A5
:1039C00093F82268174B9A4201D01CB010BD2023F7
:1039D000029302A8FEF7DAF800BB134BDA6D42F04F
:1039E0000102DA65DA6D02F001020092009ADA6CE7
:1039F00042F00102DA64DB6C03F001030193019BE6
:103A00000C23179302221892002219921A921B93E8
:103A100017A94FF09040FDF71BFBD6E7FFF79AFD83
:103A2000DBE700BF00800040001002400D488546E3
:103A3000FFF740FE0C480D490D4A002302E0D45820
:103A4000C4500433C4188C42F9D30A4A0A4C0023E8
:103A500001E013600432A242FBD300F053F8FFF7F9
:103A6000B3FDFEE700000220000000205C00002003
:103A7000444700085C00002034040020FEE70000FA
:103A80000CB430B5174B0C1E1D689DB008DA8B23A3
:103A90002B604FF0FF301DB0BDE8304002B07047E2
:103AA0004FF40273ADF8143014BF04F1FF33234612
:103AB000049307934FF6FF7302900690ADF816300B
:103AC000209A21AB02A92846019300F095F9431CE6
:103AD000BCBF8B232B60002CDDD0029B00221A7010
:103AE000D9E700BF0C00002002440346934200D1F6
:103AF000704703F8011BF9E7014B1868704700BFD6
:103B00000C00002070B50D4D0D4C641BA410002658
:103B1000A64209D10B4D0C4C00F0C2FD641BA41051
:103B20000026A64205D170BD55F8043B98470136E2
:103B3000EEE755F8043B98470136F2E73C470008AA
:103B40003C4700083C470008404700087047704762
:103B500038B50546002941D051F8043C0C1F002B14
:103B6000B8BFE41800F0E0F81D4A136833B9636089
:103B700014602846BDE8384000F0DCB8A34208D9FC
:103B8000206821188B4201BF19685B680918216001
:103B9000EDE71A465B680BB1A342FAD911685018D9
:103BA000A0420BD120680144501883421160E0D13B
:103BB00018685B68536008441060DAE702D90C2388
:103BC0002B60D6E7206821188B4204BF19685B6818
:103BD000636004BF091821605460CAE738BD00BFA4
:103BE0003004002070B50F4E0C463168054611B9FF
:103BF00000F0A4FB30602146284600F09FFB431CE8
:103C000003D14FF0FF34204670BDC41C24F00304E0
:103C1000A042F8D0211A284600F090FB0130F2D1E2
:103C2000EFE700BF2C0400202DE9F843CD1C25F060
:103C3000030508350C2D38BF0C25002D064601DB89
:103C4000A94204D90C2333600020BDE8F883DFF8D3
:103C5000D48000F069F8D8F800301C4644BB2946EF
:103C60003046FFF7BFFF431C044658D1D8F8004048
:103C70002746002F43D1002C4BD0236839463046CD
:103C800004EB030900F05AFB814542D121686D1A0B
:103C900029463046FFF7A6FF01303AD023682B446F
:103CA0002360D8F800305A6862BBC8F800700FE093
:103CB0002268521B20D40B2A17D96119A342256010
:103CC00018BF5960636808BFC8F8001062514B60A4
:103CD000304600F02FF804F10B00231D20F0070000
:103CE000C21A1CBF1B1AA350AFE76268A3420CBFE5
:103CF000C8F800205A60EBE723466468AEE73C460C
:103D00007F68B6E71A465B68A342FBD10023536085
:103D1000DEE70C233360304600F00CF894E70560D2
:103D2000D6E700BF300400200148FFF70FBF00BFF7
:103D3000280400200148FFF70ABF00BF2804002024
:103D40002DE9F0478E681F46BE420B6882460C463E
:103D500090462DD8B1F90C2012F4906F26D06569E9
:103D6000096905EB4505A3EB010905EBD5757B1C3E
:103D70004B446D109D4238BF1D46530527D529463B
:103D8000FFF752FF064660B321694A4600F0E6FAA3
:103D9000A38923F4906343F08003A38126616561C6
:103DA0004E44A5EB09052660A5603E46BE4200D9FB
:103DB0003E4620683246414600F0A6FAA3689B1BA7
:103DC000A3602368334423600020BDE8F0872A46BF
:103DD00000F0D2FA06460028E0D121695046FFF7EC
:103DE000B7FE0C23CAF80030A38943F04003A38137
:103DF0004FF0FF30E9E700002DE9F04F98468B893E
:103E00001B069DB007460D46144610D50B6973B9C5
:103E10004021FFF709FF2860286130B90C233B607F
:103E20004FF0FF301DB0BDE8F08F40236B610023E1
:103E3000099320238DF82930CDF80C803023DFF84A
:103E40009C818DF82A304FF0010923469A4613F8D9
:103E5000012B0AB1252AF9D1BAEB040B0BD05B4632
:103E6000224629463846FFF76BFF013000F0A78055
:103E7000099A5A4409929AF80030002B00F09F806A
:103E800000234FF0FF32CDE905230AF1010A049324
:103E900007938DF853301A935446052214F8011BEA
:103EA0004E48FCF79DF9049AD8B9D00644BF2023A8
:103EB0008DF85330110744BF2B238DF853309AF8F7
:103EC00000302A2B15D0079A544600204FF00A0CD8
:103ED000214611F8013B303B092B4BD9B0B1079279
:103EE00014E0A0EB080309FA03F313430493A2467A
:103EF000D2E7039B191D1B680391002BBBBF5B42DC
:103F000042F0020207930793B8BF049223782E2B46
:103F10000AD163782A2B32D1039B1A1D1B680392A6
:103F200043EAE37302340593DFF8C0A0217803224B
:103F30005046FCF755F938B1049BA0EB0A0040222B
:103F4000824013430134049314F8011B24488DF874
:103F500028100622FCF744F9002836D0214B1BBB61
:103F6000039B073323F0070308330393099B334470
:103F700009936AE70CFB02320C460120A8E70023F4
:103F80000134059319464FF00A0C204610F8012B16
:103F9000303A092A03D9002BC6D00591C4E70CFB9F
:103FA000012104460123F0E703AB00932A460E4BA0
:103FB00004A93846AFF30080421C0646D6D1AB892F
:103FC0005B063FF52DAF09982CE703AB00932A461B
:103FD000054B04A9384600F079F8EDE700470008E2
:103FE0000A47000800000000413D0008064700089D
:103FF0002DE9F047164698468A680B69DDF820904F
:104000009342B8BF1346336091F8432007460C46ED
:104010000AB1013333602368990642BF3368023323
:104020003360256815F0060506D104F1190AE36826
:1040300032689B1AAB4226DC94F843302268003B7E
:1040400018BF012392062BD404F14302414638469F
:10405000C84701301ED02368226903F00603042BF1
:1040600002BFE5683368ED1AA3680CBF25EAE57561
:1040700000259342C4BF9B1AED1800261A34B5429E
:104080001AD1002008E00123524641463846C8476D
:10409000013003D14FF0FF30BDE8F0870135C6E7AE
:1040A000E1185A1C302081F84300224494F845104E
:1040B00082F843100233C7E70123224641463846BF
:1040C000C8470130E6D00136D9E700002DE9FF47A7
:1040D0000F7E0C9E782F914680460C469A4601F141
:1040E000430207D8622F0AD8002F00F0D180582F42
:1040F00000F0B88004F1420684F842703AE0A7F17B
:104100006303152BF6D801A151F823F0654100088F
:1041100079410008F5400008F5400008F540000826
:10412000F540000879410008F5400008F540000816
:10413000F5400008F540000877420008A341000858
:1041400031420008F5400008F54000089942000897
:10415000F5400008A3410008F5400008F5400008BC
:104160003942000833681A1D1B68326004F14206A8
:1041700084F8423001239CE033682068191D3160C7
:10418000060601D51D6803E04506FBD5B3F90050CE
:10419000002D03DA2D236D4284F8433058480A235A
:1041A00011E021683368080653F8045B02D449061D
:1041B00048BFADB26F2F5248336014BF0A230823A3
:1041C000002184F843106668A660002E05DB216894
:1041D0002E4321F0040121604BD01646B5FBF3F1CC
:1041E00003FB1157C75D06F8017D2F46BB420D4604
:1041F000F4D9082B0BD12368DF0708D52369616840
:104200009942DEBF302306F8013C06F1FF36921BCF
:104210002261CDF800A04B4603AA21464046FFF795
:10422000E7FE01304AD14FF0FF3004B0BDE8F0871F
:10423000236843F0200323603248782784F84570D0
:10424000236831681F0651F8045B02D45F0648BF3B
:10425000ADB23160D90744BF43F0200323601DB1E4
:104260001023ADE72648E9E7236823F02003236005
:10427000F6E71646BDE7336825686169181D3060AA
:104280002E061B6801D5196002E06806FBD519806F
:10429000002323611646BCE733681A1D32601E688E
:1042A000626800213046FBF79BFF08B1801B60600D
:1042B00063682361002384F84330AAE72369324608
:1042C00049464046D0470130ADD023689B0713D400
:1042D000E068039B9842B8BF1846A6E70123324620
:1042E00049464046D04701309DD00135E3680399E7
:1042F0005B1AAB42F2DCEBE7002504F11906F5E7A7
:104300001147000822470008884210B501EB02045B
:1043100002D98442234607D8431EA14208D011F88F
:10432000012B03F8012FF8E7024401468A4200D12D
:1043300010BD13F8014D02F8014DF7E738B5064DF1
:104340000023044608462B60FFF790F9431C02D176
:104350002B6803B1236038BD240400200A44914235
:1043600000F1FF3300D1704710B511F8014B03F88D
:10437000014F9142F9D110BD2DE9F0410746144695
:104380000D4621B9BDE8F0411146FFF74DBC2AB9F1
:10439000FFF7DEFB25462846BDE8F08100F01AF85D
:1043A0008442064602D8B4EB500FF4D82146384672
:1043B000FFF73AFC804608B94546ECE7B44222468E
:1043C000294628BF3246FFF7C9FF29463846FFF77E
:1043D000BFFBF1E751F8043C181F002BBCBF0B5882
:1043E000C01870472DE9F047089D0E4604460F4659
:1043F000002B4AD194468C45B2FA82F260D942B180
:10440000C2F12003974020FA03F30CFA02FC1F4389
:1044100094404FEA1C4E1FFA8CF6B7FBFEF1230CBA
:104420000EFB117743EA074301FB06F098420AD9D5
:104430001CEB030301F1FF3780F01581984240F235
:104440001281023963441B1AA4B2B3FBFEF00EFBC7
:10445000103344EA034400FB06F6A6420AD91CEBDB
:10446000040400F1FF3380F00081A64240F2FD8099
:104470006444023840EA0140A41B00211DB1D4402D
:104480000023C5E90043BDE8F0878B4205D90DB193
:10449000C5E9000100210846F5E7B3FA83F10029D8
:1044A00046D1B34202D3824200F2F580841A66EB11
:1044B000030201201746002DE5D0C5E90047E2E7D9
:1044C000002A40F09380A1EB0C034FEA1C471FFA2F
:1044D0008CFE0121B3FBF7F607FB1630230C43EAF1
:1044E00000430EFB06F0984208D91CEB030306F1CB
:1044F000FF3802D2984200F2D08046461B1AA4B27E
:10450000B3FBF7F007FB103344EA03440EFB00FE55
:10451000A64508D91CEB040400F1FF3302D2A645DE
:1045200000F2B6801846A4EB0E0440EA0640A5E768
:10453000C1F120078B4022FA07FC4CEA030C06FA73
:1045400001FE20FA07F426FA07F344EA0E0400FA03
:1045500001F84FEA1C404FEA1449B3FBF0FE1FFA82
:104560008CF600FB1E3349EA03430EFB06F999451E
:1045700002FA01F20BD91CEB03030EF1FF3A80F0B3
:104580008580994540F28280AEF1020E6344A3EB30
:104590000909A4B2B9FBF0F300FB139944EA0944FA
:1045A00003FB06F6A64208D91CEB040403F1FF3016
:1045B00068D2A64266D9023B644443EA0E40A41B7B
:1045C000A0FB02E6B4427346B14652D34FD05DB170
:1045D000B8EB030264EB090404FA07F722FA01F3CB
:1045E0001F43CC40C5E9007400214CE7C2F1200113
:1045F00020FA01F30CFA02FC26FA01F1964033434B
:104600004FEA1C471FFA8CFEB1FBF7F007FB1016B0
:10461000190C41EA064100FB0EF68E4204FA02F440
:1046200008D91CEB010100F1FF382DD28E422BD9A5
:1046300002386144891B9BB2B1FBF7F607FB1611E8
:1046400043EA014306FB0EF1994208D91CEB030330
:1046500006F1FF3814D2994212D9023E63445B1A24
:1046600046EA004136E73946EDE6184602E7F045EE
:10467000ADD2BEEB020366EB0C060138B146A6E7ED
:104680004646ECE7034698E74046D3E7D6467EE742
:104690006444023847E708460DE7023E63442DE7CD
:1046A000F8B500BFF8BC08BC9E467047F8B500BF1F
:0846B000F8BC08BC9E467047EF
:1046B800010002000400060008000A000C001000B7
:1046C80020004000800000010804020408010101E4
:1046D800010101030701000025640A0D0000000024
:1046E80000000000010203040000000000000000B8
:1046F8000102030406070809232D302B2000686CEB
:104708004C006566674546470030313233343536EC
:104718003738394142434445460030313233343525
:0C47280036373839616263646566000052
:08473400ACBAFF7F0100000098
:04473C00D902000896
:04474000B5020008B6
:1047440001000000100000000024F400100000200C
:1047540000000000EC02002054030020BC030020F1
:104764000000000000000000000000000000000045
:104774000000000000000000000000000000000035
:104784000000000000000000000000000000000025
:0C47940000000000000000000000000019
:0400000508003A2D88
:00000001FF
